{
  "address": "0x33078c81ae273e5F12D2c5991c371CB1f0BFb263",
  "abi": [
    {
      "inputs": [
        {
          "internalType": "contract IGelatoCore",
          "name": "_gelatoCore",
          "type": "address"
        },
        {
          "internalType": "contract IOracleAggregator",
          "name": "_oracleAggregator",
          "type": "address"
        },
        {
          "internalType": "contract ISmartWalletSwapImplementation",
          "name": "_smartWalletSwap",
          "type": "address"
        },
        {
          "internalType": "address",
          "name": "_executor",
          "type": "address"
        },
        {
          "internalType": "address payable",
          "name": "_platformWallet",
          "type": "address"
        }
      ],
      "stateMutability": "payable",
      "type": "constructor"
    },
    {
      "anonymous": false,
      "inputs": [
        {
          "indexed": true,
          "internalType": "address",
          "name": "previousOwner",
          "type": "address"
        },
        {
          "indexed": true,
          "internalType": "address",
          "name": "newOwner",
          "type": "address"
        }
      ],
      "name": "OwnershipTransferred",
      "type": "event"
    },
    {
      "inputs": [],
      "name": "PLATFORM_FEE_BPS",
      "outputs": [
        {
          "internalType": "uint256",
          "name": "",
          "type": "uint256"
        }
      ],
      "stateMutability": "view",
      "type": "function"
    },
    {
      "inputs": [
        {
          "internalType": "address",
          "name": "_user",
          "type": "address"
        },
        {
          "internalType": "contract IERC20",
          "name": "_token",
          "type": "address"
        }
      ],
      "name": "allowanceDelta",
      "outputs": [
        {
          "internalType": "uint256",
          "name": "delta",
          "type": "uint256"
        },
        {
          "internalType": "bool",
          "name": "isLiquid",
          "type": "bool"
        }
      ],
      "stateMutability": "view",
      "type": "function"
    },
    {
      "inputs": [
        {
          "internalType": "uint256",
          "name": "_taskReceiptId",
          "type": "uint256"
        },
        {
          "internalType": "address",
          "name": "_user",
          "type": "address"
        },
        {
          "internalType": "address",
          "name": "_inputToken",
          "type": "address"
        },
        {
          "internalType": "address",
          "name": "_outputToken",
          "type": "address"
        },
        {
          "internalType": "uint256",
          "name": "_amountPerTrade",
          "type": "uint256"
        },
        {
          "internalType": "uint256",
          "name": "_minSlippage",
          "type": "uint256"
        },
        {
          "internalType": "uint256",
          "name": "_maxSlippage",
          "type": "uint256"
        }
      ],
      "name": "checkTimeAndReturn",
      "outputs": [
        {
          "internalType": "string",
          "name": "",
          "type": "string"
        }
      ],
      "stateMutability": "view",
      "type": "function"
    },
    {
      "inputs": [
        {
          "internalType": "address",
          "name": "_inToken",
          "type": "address"
        },
        {
          "internalType": "address",
          "name": "_outToken",
          "type": "address"
        },
        {
          "internalType": "uint256",
          "name": "_amountPerTrade",
          "type": "uint256"
        },
        {
          "internalType": "address payable",
          "name": "_user",
          "type": "address"
        },
        {
          "internalType": "uint256",
          "name": "_delay",
          "type": "uint256"
        }
      ],
      "name": "doSwapKyberAction",
      "outputs": [],
      "stateMutability": "nonpayable",
      "type": "function"
    },
    {
      "inputs": [
        {
          "internalType": "uint256",
          "name": "",
          "type": "uint256"
        },
        {
          "internalType": "address",
          "name": "",
          "type": "address"
        },
        {
          "internalType": "address",
          "name": "",
          "type": "address"
        },
        {
          "components": [
            {
              "components": [
                {
                  "internalType": "address",
                  "name": "inst",
                  "type": "address"
                },
                {
                  "internalType": "bytes",
                  "name": "data",
                  "type": "bytes"
                }
              ],
              "internalType": "struct Condition[]",
              "name": "conditions",
              "type": "tuple[]"
            },
            {
              "components": [
                {
                  "internalType": "address",
                  "name": "addr",
                  "type": "address"
                },
                {
                  "internalType": "bytes",
                  "name": "data",
                  "type": "bytes"
                },
                {
                  "internalType": "enum Operation",
                  "name": "operation",
                  "type": "uint8"
                },
                {
                  "internalType": "enum DataFlow",
                  "name": "dataFlow",
                  "type": "uint8"
                },
                {
                  "internalType": "uint256",
                  "name": "value",
                  "type": "uint256"
                },
                {
                  "internalType": "bool",
                  "name": "termsOkCheck",
                  "type": "bool"
                }
              ],
              "internalType": "struct Action[]",
              "name": "actions",
              "type": "tuple[]"
            },
            {
              "internalType": "uint256",
              "name": "selfProviderGasLimit",
              "type": "uint256"
            },
            {
              "internalType": "uint256",
              "name": "selfProviderGasPriceCeil",
              "type": "uint256"
            }
          ],
          "internalType": "struct Task",
          "name": "_task",
          "type": "tuple"
        },
        {
          "internalType": "uint256",
          "name": "",
          "type": "uint256"
        }
      ],
      "name": "execPayload",
      "outputs": [
        {
          "internalType": "bytes",
          "name": "payload",
          "type": "bytes"
        },
        {
          "internalType": "bool",
          "name": "",
          "type": "bool"
        }
      ],
      "stateMutability": "pure",
      "type": "function"
    },
    {
      "inputs": [],
      "name": "gelatoCore",
      "outputs": [
        {
          "internalType": "contract IGelatoCore",
          "name": "",
          "type": "address"
        }
      ],
      "stateMutability": "view",
      "type": "function"
    },
    {
      "inputs": [
        {
          "internalType": "address",
          "name": "_user",
          "type": "address"
        },
        {
          "internalType": "address",
          "name": "_inputToken",
          "type": "address"
        },
        {
          "internalType": "address",
          "name": "_outputToken",
          "type": "address"
        },
        {
          "internalType": "uint256",
          "name": "_amountPerTrade",
          "type": "uint256"
        },
        {
          "internalType": "uint256",
          "name": "_minSlippage",
          "type": "uint256"
        },
        {
          "internalType": "uint256",
          "name": "_maxSlippage",
          "type": "uint256"
        }
      ],
      "name": "getConditionData",
      "outputs": [
        {
          "internalType": "bytes",
          "name": "",
          "type": "bytes"
        }
      ],
      "stateMutability": "pure",
      "type": "function"
    },
    {
      "inputs": [
        {
          "internalType": "uint256",
          "name": "_taskReceiptId",
          "type": "uint256"
        },
        {
          "internalType": "bytes",
          "name": "_conditionData",
          "type": "bytes"
        },
        {
          "internalType": "uint256",
          "name": "",
          "type": "uint256"
        }
      ],
      "name": "ok",
      "outputs": [
        {
          "internalType": "string",
          "name": "",
          "type": "string"
        }
      ],
      "stateMutability": "view",
      "type": "function"
    },
    {
      "inputs": [],
      "name": "oracleAggregator",
      "outputs": [
        {
          "internalType": "contract IOracleAggregator",
          "name": "",
          "type": "address"
        }
      ],
      "stateMutability": "view",
      "type": "function"
    },
    {
      "inputs": [],
      "name": "owner",
      "outputs": [
        {
          "internalType": "address",
          "name": "",
          "type": "address"
        }
      ],
      "stateMutability": "view",
      "type": "function"
    },
    {
      "inputs": [],
      "name": "platformWallet",
      "outputs": [
        {
          "internalType": "address payable",
          "name": "",
          "type": "address"
        }
      ],
      "stateMutability": "view",
      "type": "function"
    },
    {
      "inputs": [],
      "name": "provideFunds",
      "outputs": [],
      "stateMutability": "payable",
      "type": "function"
    },
    {
      "inputs": [
        {
          "internalType": "address",
          "name": "_executor",
          "type": "address"
        }
      ],
      "name": "reAssignExecutor",
      "outputs": [],
      "stateMutability": "payable",
      "type": "function"
    },
    {
      "inputs": [
        {
          "internalType": "address payable",
          "name": "_platformWallet",
          "type": "address"
        }
      ],
      "name": "reAssignPlatforWallet",
      "outputs": [],
      "stateMutability": "payable",
      "type": "function"
    },
    {
      "inputs": [
        {
          "internalType": "address",
          "name": "",
          "type": "address"
        },
        {
          "internalType": "uint256",
          "name": "",
          "type": "uint256"
        }
      ],
      "name": "refTime",
      "outputs": [
        {
          "internalType": "uint256",
          "name": "",
          "type": "uint256"
        }
      ],
      "stateMutability": "view",
      "type": "function"
    },
    {
      "inputs": [],
      "name": "renounceOwnership",
      "outputs": [],
      "stateMutability": "nonpayable",
      "type": "function"
    },
    {
      "inputs": [],
      "name": "smartWalletSwap",
      "outputs": [
        {
          "internalType": "contract ISmartWalletSwapImplementation",
          "name": "",
          "type": "address"
        }
      ],
      "stateMutability": "view",
      "type": "function"
    },
    {
      "inputs": [
        {
          "components": [
            {
              "internalType": "address",
              "name": "_inToken",
              "type": "address"
            },
            {
              "internalType": "address",
              "name": "_outToken",
              "type": "address"
            },
            {
              "internalType": "uint256",
              "name": "_amountPerTrade",
              "type": "uint256"
            },
            {
              "internalType": "uint256",
              "name": "_nTrades",
              "type": "uint256"
            },
            {
              "internalType": "uint256",
              "name": "_minSlippage",
              "type": "uint256"
            },
            {
              "internalType": "uint256",
              "name": "_maxSlippage",
              "type": "uint256"
            },
            {
              "internalType": "uint256",
              "name": "_delay",
              "type": "uint256"
            },
            {
              "internalType": "uint256",
              "name": "_gasPriceCeil",
              "type": "uint256"
            }
          ],
          "internalType": "struct GelatoKrystal.OrderInputs",
          "name": "_orderInputs",
          "type": "tuple"
        }
      ],
      "name": "submitDCAKyber",
      "outputs": [],
      "stateMutability": "payable",
      "type": "function"
    },
    {
      "inputs": [
        {
          "internalType": "address",
          "name": "",
          "type": "address"
        },
        {
          "internalType": "address",
          "name": "",
          "type": "address"
        }
      ],
      "name": "totalToSpend",
      "outputs": [
        {
          "internalType": "uint256",
          "name": "",
          "type": "uint256"
        }
      ],
      "stateMutability": "view",
      "type": "function"
    },
    {
      "inputs": [
        {
          "internalType": "address",
          "name": "newOwner",
          "type": "address"
        }
      ],
      "name": "transferOwnership",
      "outputs": [],
      "stateMutability": "nonpayable",
      "type": "function"
    },
    {
      "inputs": [
        {
          "internalType": "uint256",
          "name": "_amount",
          "type": "uint256"
        },
        {
          "internalType": "address",
          "name": "_dest",
          "type": "address"
        }
      ],
      "name": "unprovideFunds",
      "outputs": [],
      "stateMutability": "payable",
      "type": "function"
    },
    {
      "stateMutability": "payable",
      "type": "receive"
    }
  ],
  "transactionHash": "0x4c1ba942891a8d9e93e7aaac9c95ce174d64858b917a54b1f83754e00ab690e4",
  "args": [
    "0xb916929A3cD2862835Ca59118Cc584355928d341",
    "0x8c5504a2733F1cbAa4741CF32316eD7CE3296B20",
    "0x4A0C59CcCae7B4F0732a4A1b9A7BDA49cc1d88F9",
    "0xBa16b28675378Bf62156aA9Bb430177Eb02c0E99",
    "0x3fFFF2F4f6C0831FAC59534694ACd14AC2Ea501b"
  ],
  "solcInputHash": "cfda6ca59c23382c977e5a2daf83f433",
  "bytecode": "0x60e0604052604051620029da380380620029da833981016040819052620000269162000247565b6001600160601b0319606086901b1660805260006200004462000243565b600080546001600160a01b0319166001600160a01b0383169081178255604051929350917f8be0079c531659141344cd1fd0a4f28419497f9722a3daafe3b4186f6b6457e0908290a3506001600160601b0319606085811b821660a05284901b1660c052600380546001600160a01b038381166001600160a01b03199092169190911790915560405163088a5e3360e41b8152908616906388a5e33090620000f1908590600401620002c6565b600060405180830381600087803b1580156200010c57600080fd5b505af115801562000121573d6000803e3d6000fd5b50506040805160018082528183019092526060935091506020808301908036833701905050905030816000815181106200015757fe5b6001600160a01b039283166020918202929092010152604051631f0f3b6960e21b815290871690637c3ceda49062000194908490600401620002da565b600060405180830381600087803b158015620001af57600080fd5b505af1158015620001c4573d6000803e3d6000fd5b50505050600034111562000237576040516328d0cad760e01b81526001600160a01b038716906328d0cad790349062000202903090600401620002c6565b6000604051808303818588803b1580156200021c57600080fd5b505af115801562000231573d6000803e3d6000fd5b50505050505b50505050505062000342565b3390565b600080600080600060a086880312156200025f578081fd5b85516200026c8162000329565b60208701519095506200027f8162000329565b6040870151909450620002928162000329565b6060870151909350620002a58162000329565b6080870151909250620002b88162000329565b809150509295509295909350565b6001600160a01b0391909116815260200190565b6020808252825182820181905260009190848201906040850190845b818110156200031d5783516001600160a01b031683529284019291840191600101620002f6565b50909695505050505050565b6001600160a01b03811681146200033f57600080fd5b50565b60805160601c60a05160601c60c05160601c612635620003a5600039806104f85280610a035280610b445280610b915250806109355280610ee552508061048b528061056652806106df5280610d62528061112c52806115a352506126356000f3fe60806040526004361061012e5760003560e01c80638787ea36116100ab578063a99891c51161006f578063a99891c5146102d7578063b948104e146102f7578063bd71c39c14610325578063f2fde38b14610345578063fa2af9da14610365578063fe861b991461037a57610135565b80638787ea361461025a5780638c8500bf1461026d5780638da5cb5b1461028d5780638dffe3f4146102a257806390a488ac146102b757610135565b806332786692116100f257806332786692146101c357806347486af0146101d65780634cc342d614610203578063539aa77f14610223578063715018a61461024557610135565b806304a52e291461013a57806306fca7281461014f57806317b333081461018657806326d3562d1461018e5780633238c4f1146101b057610135565b3661013557005b600080fd5b61014d610148366004611928565b61038f565b005b34801561015b57600080fd5b5061016f61016a366004611b46565b6103ef565b60405161017d929190611f49565b60405180910390f35b61014d610474565b34801561019a57600080fd5b506101a36104f6565b60405161017d9190611e98565b61014d6101be366004611928565b61051a565b61014d6101d1366004611a85565b6105b5565b3480156101e257600080fd5b506101f66101f1366004611ad9565b610757565b60405161017d9190611f36565b34801561020f57600080fd5b5061014d61021e3660046119e0565b610b16565b34801561022f57600080fd5b50610238610c8f565b60405161017d919061234e565b34801561025157600080fd5b5061014d610c94565b61014d610268366004611ab5565b610d13565b34801561027957600080fd5b506101f6610288366004611944565b610e6d565b34801561029957600080fd5b506101a3610ed3565b3480156102ae57600080fd5b506101a3610ee3565b3480156102c357600080fd5b506102386102d2366004611a3a565b610f07565b3480156102e357600080fd5b506101f66102f2366004611bab565b610f24565b34801561030357600080fd5b506103176103123660046119a8565b610f71565b60405161017d9291906123b5565b34801561033157600080fd5b506102386103403660046119a8565b611048565b34801561035157600080fd5b5061014d610360366004611928565b611065565b34801561037157600080fd5b506101a361111b565b34801561038657600080fd5b506101a361112a565b61039761114e565b6000546001600160a01b039081169116146103cd5760405162461bcd60e51b81526004016103c4906121b6565b60405180910390fd5b600380546001600160a01b0319166001600160a01b0392909216919091179055565b6060600061040060208501856123c5565b600081811061040b57fe5b905060200281019061041d9190612458565b61042b906020810190612413565b600082828080601f016020809104026020016040519081016040528093929190818152602001838380828437600092019190915250929d939c50929a5050505050505050505050565b6040516328d0cad760e01b81526001600160a01b037f000000000000000000000000000000000000000000000000000000000000000016906328d0cad79034906104c2903090600401611e98565b6000604051808303818588803b1580156104db57600080fd5b505af11580156104ef573d6000803e3d6000fd5b5050505050565b7f000000000000000000000000000000000000000000000000000000000000000081565b61052261114e565b6000546001600160a01b0390811691161461054f5760405162461bcd60e51b81526004016103c4906121b6565b60405163088a5e3360e41b81526001600160a01b037f000000000000000000000000000000000000000000000000000000000000000016906388a5e3309061059b908490600401611e98565b600060405180830381600087803b1580156104db57600080fd5b6105c38160c0013533611152565b33600090815260026020908152604082209082906105e390850185611928565b6001600160a01b03166001600160a01b0316815260200190815260200160002054905061062b826060013561062584604001358461119c90919063ffffffff16565b906111ca565b3360009081526002602090815260408220919061064a90860186611928565b6001600160a01b0316815260208101919091526040016000205561066c61189b565b5060408051808201909152308082526020808301919091526060906106c59061069790860186611928565b6106a76040870160208801611928565b866040013587608001358860a001358960c001358a60e00135611204565b6040516316691c4d60e31b81529091506001600160a01b037f0000000000000000000000000000000000000000000000000000000000000000169063b348e2689061071f908590859060009060608b0135906004016122c2565b600060405180830381600087803b15801561073957600080fd5b505af115801561074d573d6000803e3d6000fd5b5050505050505050565b60606000866001600160a01b03166370a08231896040518263ffffffff1660e01b81526004016107879190611e98565b60206040518083038186803b15801561079f57600080fd5b505afa1580156107b3573d6000803e3d6000fd5b505050506040513d601f19601f820116820180604052508101906107d79190611a9d565b905084811015610802576040518060600160405280602481526020016125dc60249139915050610b0b565b604051636eb1769f60e11b81526000906001600160a01b0389169063dd62ed3e90610833908c903090600401611eac565b60206040518083038186803b15801561084b57600080fd5b505afa15801561085f573d6000803e3d6000fd5b505050506040513d601f19601f820116820180604052508101906108839190611a9d565b9050858110156108af576040518060600160405280602681526020016125856026913992505050610b0b565b6001600160a01b03891660009081526001602090815260408083208d84529091529020544281111561091b576040518060400160405280601f81526020017f47656c61746f4b7279737473616c3a2054696d65206e6f7420706173736564008152509350505050610b0b565b604051630f1dcadb60e21b81526000906001600160a01b037f00000000000000000000000000000000000000000000000000000000000000001690633c772b6c9061096e908b908e908e90600401612357565b604080518083038186803b15801561098557600080fd5b505afa158015610999573d6000803e3d6000fd5b505050506040513d601f19601f820116820180604052508101906109bd9190611c28565b50905060006109cc42846113fb565b88039050808711156109db5750855b60006109fd6109f66127106109f086866111ca565b9061143d565b84906113fb565b905060007f00000000000000000000000000000000000000000000000000000000000000006001600160a01b031663f2459d638e8e8e6008604051806020016040528060008152506040518663ffffffff1660e01b8152600401610a65959493929190611fd9565b604080518083038186803b158015610a7c57600080fd5b505afa158015610a90573d6000803e3d6000fd5b505050506040513d601f19601f82011682018060405250810190610ab49190611c28565b50905080821115610ae6576040518060600160405280603181526020016125ab60319139975050505050505050610b0b565b604051806040016040528060028152602001614f4b60f01b8152509750505050505050505b979650505050505050565b610b208183611152565b610b356001600160a01b03861683308661147f565b610b696001600160a01b0386167f0000000000000000000000000000000000000000000000000000000000000000856114d7565b600354604080516020810182526000808252915163cf512b5360e01b81526001600160a01b037f000000000000000000000000000000000000000000000000000000000000000081169463cf512b5394610bd8948c948c948c948c936008939190921691908590600401611f6d565b602060405180830381600087803b158015610bf257600080fd5b505af1158015610c06573d6000803e3d6000fd5b505050506040513d601f19601f82011682018060405250810190610c2a9190611a9d565b506001600160a01b03808316600090815260026020908152604080832093891683529290522054610c5b81856113fb565b6001600160a01b03938416600090815260026020908152604080832099909616825297909752929095209190915550505050565b600881565b610c9c61114e565b6000546001600160a01b03908116911614610cc95760405162461bcd60e51b81526004016103c4906121b6565b600080546040516001600160a01b03909116907f8be0079c531659141344cd1fd0a4f28419497f9722a3daafe3b4186f6b6457e0908390a3600080546001600160a01b0319169055565b610d1b61114e565b6000546001600160a01b03908116911614610d485760405162461bcd60e51b81526004016103c4906121b6565b60405163c6638a8b60e01b81526000906001600160a01b037f0000000000000000000000000000000000000000000000000000000000000000169063c6638a8b90610d9790869060040161234e565b602060405180830381600087803b158015610db157600080fd5b505af1158015610dc5573d6000803e3d6000fd5b505050506040513d601f19601f82011682018060405250810190610de99190611a9d565b90506000826001600160a01b031682604051610e0490610ee0565b60006040518083038185875af1925050503d8060008114610e41576040519150601f19603f3d011682016040523d82523d6000602084013e610e46565b606091505b5050905080610e675760405162461bcd60e51b81526004016103c49061213e565b50505050565b60606347486af060e01b6000888888888888604051602401610e959796959493929190612376565b60408051601f198184030181529190526020810180516001600160e01b03166001600160e01b03199093169290921790915290509695505050505050565b6000546001600160a01b03165b90565b7f000000000000000000000000000000000000000000000000000000000000000081565b600160209081526000928352604080842090915290825290205481565b606060008080808080610f3a896024818d61246d565b810190610f479190611944565b955095509550955095509550610f628b878787878787610757565b9b9a5050505050505050505050565b6001600160a01b03808316600090815260026020908152604080832093851680845293909152808220549051636eb1769f60e11b81529192839283919063dd62ed3e90610fc49089903090600401611eac565b60206040518083038186803b158015610fdc57600080fd5b505afa158015610ff0573d6000803e3d6000fd5b505050506040513d601f19601f820116820180604052508101906110149190611a9d565b9050818110611032576001925061102b81836113fb565b935061103f565b61103c82826113fb565b93505b50509250929050565b600260209081526000928352604080842090915290825290205481565b61106d61114e565b6000546001600160a01b0390811691161461109a5760405162461bcd60e51b81526004016103c4906121b6565b6001600160a01b0381166110c05760405162461bcd60e51b81526004016103c49061207b565b600080546040516001600160a01b03808516939216917f8be0079c531659141344cd1fd0a4f28419497f9722a3daafe3b4186f6b6457e091a3600080546001600160a01b0319166001600160a01b0392909216919091179055565b6003546001600160a01b031681565b7f000000000000000000000000000000000000000000000000000000000000000081565b3390565b42600061115f828561119c565b6001600160a01b038416600090815260016020526040812091925082919061118561159f565b815260208101919091526040016000205550505050565b6000828201838110156111c15760405162461bcd60e51b81526004016103c4906120c1565b90505b92915050565b6000826111d9575060006111c4565b828202828482816111e657fe5b04146111c15760405162461bcd60e51b81526004016103c490612175565b606061120e6118b2565b6040518060400160405280306001600160a01b03168152602001611236338c8c8c8c8c610e6d565b905260408051600180825281830190925291925060609190816020015b61125b6118b2565b815260200190600190039081611253579050509050818160008151811061127e57fe5b60200260200101819052506112916118ca565b6040805160c08101825230815290516020820190632661a16b60e11b906112c4908f908f908f9033908e90602401611eea565b60408051601f19818403018152919052602080820180516001600160e01b03166001600160e01b031990941693909317909252825201600081526020016000815260006020820181905260409091018190529091506060906001905060405190808252806020026020018201604052801561135957816020015b6113466118ca565b81526020019060019003908161133e5790505b509050818160008151811061136a57fe5b602002602001018190525061137d611900565b506040805160808101825284815260208101839052622dc6c08183015260608101889052815160018082528184019093529091816020015b6113bd611900565b8152602001906001900390816113b557905050955080866000815181106113e057fe5b60200260200101819052505050505050979650505050505050565b60006111c183836040518060400160405280601e81526020017f536166654d6174683a207375627472616374696f6e206f766572666c6f770000815250611698565b60006111c183836040518060400160405280601a81526020017f536166654d6174683a206469766973696f6e206279207a65726f0000000000008152506116c9565b610e67846323b872dd60e01b8585856040516024016114a093929190611ec6565b60408051601f198184030181529190526020810180516001600160e01b03166001600160e01b031990931692909217909152611700565b80158061155f5750604051636eb1769f60e11b81526001600160a01b0384169063dd62ed3e9061150d9030908690600401611eac565b60206040518083038186803b15801561152557600080fd5b505afa158015611539573d6000803e3d6000fd5b505050506040513d601f19601f8201168201806040525081019061155d9190611a9d565b155b61157b5760405162461bcd60e51b81526004016103c49061226c565b61159a8363095ea7b360e01b84846040516024016114a0929190611f1d565b505050565b60007f00000000000000000000000000000000000000000000000000000000000000006001600160a01b031663bb07c5036040518163ffffffff1660e01b815260040160206040518083038186803b1580156115fa57600080fd5b505afa92505050801561162a575060408051601f3d908101601f1916820190925261162791810190611a9d565b60015b611690576116366124c7565b806116415750611678565b806040516020016116529190611e2d565b60408051601f198184030181529082905262461bcd60e51b82526103c491600401611f36565b60405162461bcd60e51b81526004016103c490612013565b600101905090565b600081848411156116bc5760405162461bcd60e51b81526004016103c49190611f36565b50508183035b9392505050565b600081836116ea5760405162461bcd60e51b81526004016103c49190611f36565b5060008385816116f657fe5b0495945050505050565b6060611755826040518060400160405280602081526020017f5361666545524332303a206c6f772d6c6576656c2063616c6c206661696c6564815250856001600160a01b031661178f9092919063ffffffff16565b80519091501561159a57808060200190518101906117739190611a65565b61159a5760405162461bcd60e51b81526004016103c490612222565b606061179e84846000856117a6565b949350505050565b6060824710156117c85760405162461bcd60e51b81526004016103c4906120f8565b6117d18561185c565b6117ed5760405162461bcd60e51b81526004016103c4906121eb565b60006060866001600160a01b0316858760405161180a9190611e11565b60006040518083038185875af1925050503d8060008114611847576040519150601f19603f3d011682016040523d82523d6000602084013e61184c565b606091505b5091509150610b0b828286611862565b3b151590565b606083156118715750816116c2565b8251156118815782518084602001fd5b8160405162461bcd60e51b81526004016103c49190611f36565b604080518082019091526000808252602082015290565b60408051808201909152600081526060602082015290565b6040805160c081018252600080825260606020830152909182019081526020016000815260006020820181905260409091015290565b6040518060800160405280606081526020016060815260200160008152602001600081525090565b600060208284031215611939578081fd5b81356111c18161256c565b60008060008060008060c0878903121561195c578182fd5b86356119678161256c565b955060208701356119778161256c565b945060408701356119878161256c565b959894975094956060810135955060808101359460a0909101359350915050565b600080604083850312156119ba578182fd5b82356119c58161256c565b915060208301356119d58161256c565b809150509250929050565b600080600080600060a086880312156119f7578081fd5b8535611a028161256c565b94506020860135611a128161256c565b9350604086013592506060860135611a298161256c565b949793965091946080013592915050565b60008060408385031215611a4c578182fd5b8235611a578161256c565b946020939093013593505050565b600060208284031215611a76578081fd5b815180151581146111c1578182fd5b60006101008284031215611a97578081fd5b50919050565b600060208284031215611aae578081fd5b5051919050565b60008060408385031215611ac7578182fd5b8235915060208301356119d58161256c565b600080600080600080600060e0888a031215611af3578485fd5b873596506020880135611b058161256c565b95506040880135611b158161256c565b94506060880135611b258161256c565b9699959850939660808101359560a0820135955060c0909101359350915050565b600080600080600060a08688031215611b5d578283fd5b853594506020860135611b6f8161256c565b93506040860135611b7f8161256c565b9250606086013567ffffffffffffffff811115611b9a578182fd5b860160808189031215611a29578182fd5b60008060008060608587031215611bc0578182fd5b84359350602085013567ffffffffffffffff80821115611bde578384fd5b818701915087601f830112611bf1578384fd5b813581811115611bff578485fd5b886020828501011115611c10578485fd5b95986020929092019750949560400135945092505050565b60008060408385031215611c3a578182fd5b505080516020909101519092909150565b600060018060a01b03825116835260208201516040602085015261179e6040850182611d3b565b6001600160a01b03169052565b6000815180845260208085018081965082840281019150828601855b85811015611d28578284038952815160c0611cb7868351611c72565b868201518188880152611ccc82880182611d3b565b915050604080830151611ce182890182611d75565b5050606080830151611cf582890182611d67565b50506080828101519087015260a09182015191611d1481880184611d35565b509986019994505090840190600101611c9b565b5091979650505050505050565b15159052565b60008151808452611d53816020860160208601612495565b601f01601f19169290920160200192915050565b60048110611d7157fe5b9052565b60028110611d7157fe5b8051608080845281519084018190526000916020919082019060a08087019190848202880101855b82811015611dd557609f19898303018452611dc3828651611c4b565b94860194938601939150600101611da7565b5084870151935087810385890152611ded8185611c7f565b94505050505060408301516040850152606083015160608501528091505092915050565b60008251611e23818460208701612495565b9190910192915050565b60007f47656c61746f537461746566756c436f6e646974696f6e735374616e6461726482527f2e5f67657449644f664e6578745461736b496e4379636c65000000000000000060208301528251611e8b816038850160208701612495565b9190910160380192915050565b6001600160a01b0391909116815260200190565b6001600160a01b0392831681529116602082015260400190565b6001600160a01b039384168152919092166020820152604081019190915260600190565b6001600160a01b039586168152938516602085015260408401929092529092166060820152608081019190915260a00190565b6001600160a01b03929092168252602082015260400190565b6000602082526111c16020830184611d3b565b600060408252611f5c6040830185611d3b565b905082151560208301529392505050565b6001600160a01b038a8116825289811660208301526040820189905260608201889052868116608083015260a08201869052841660c082015261012060e08201819052600090611fbf83820186611d3b565b9150508215156101008301529a9950505050505050505050565b6001600160a01b03868116825285166020820152604081018490526060810183905260a060808201819052600090610b0b90830184611d3b565b60208082526042908201527f47656c61746f537461746566756c436f6e646974696f6e735374616e6461726460408201527f2e5f67657449644f664e6578745461736b496e4379636c653a756e646566696e606082015261195960f21b608082015260a00190565b60208082526026908201527f4f776e61626c653a206e6577206f776e657220697320746865207a65726f206160408201526564647265737360d01b606082015260800190565b6020808252601b908201527f536166654d6174683a206164646974696f6e206f766572666c6f770000000000604082015260600190565b60208082526026908201527f416464726573733a20696e73756666696369656e742062616c616e636520666f6040820152651c8818d85b1b60d21b606082015260800190565b60208082526019908201527f756e70726f7669646546756e64733a3a20526576657274656400000000000000604082015260600190565b60208082526021908201527f536166654d6174683a206d756c7469706c69636174696f6e206f766572666c6f6040820152607760f81b606082015260800190565b6020808252818101527f4f776e61626c653a2063616c6c6572206973206e6f7420746865206f776e6572604082015260600190565b6020808252601d908201527f416464726573733a2063616c6c20746f206e6f6e2d636f6e7472616374000000604082015260600190565b6020808252602a908201527f5361666545524332303a204552433230206f7065726174696f6e20646964206e6040820152691bdd081cdd58d8d9595960b21b606082015260800190565b60208082526036908201527f5361666545524332303a20617070726f76652066726f6d206e6f6e2d7a65726f60408201527520746f206e6f6e2d7a65726f20616c6c6f77616e636560501b606082015260800190565b600060a082016122d3838851611c72565b6020808801516122e582860182611c72565b5060a0604085015281875180845260c08601915060c08382028701019350828901855b828110156123365760bf19888703018452612324868351611d7f565b95509284019290840190600101612308565b50505050506060830194909452506080015292915050565b90815260200190565b9283526001600160a01b03918216602084015216604082015260600190565b9687526001600160a01b0395861660208801529385166040870152919093166060850152608084019290925260a083019190915260c082015260e00190565b9182521515602082015260400190565b6000808335601e198436030181126123db578283fd5b83018035915067ffffffffffffffff8211156123f5578283fd5b602090810192508102360382131561240c57600080fd5b9250929050565b6000808335601e19843603018112612429578283fd5b83018035915067ffffffffffffffff821115612443578283fd5b60200191503681900382131561240c57600080fd5b6000823560be19833603018112611e23578182fd5b6000808585111561247c578182fd5b83861115612488578182fd5b5050820193919092039150565b60005b838110156124b0578181015183820152602001612498565b83811115610e675750506000910152565b60e01c90565b600060443d10156124d757610ee0565b600481823e6308c379a06124eb82516124c1565b146124f557610ee0565b6040513d600319016004823e80513d67ffffffffffffffff81602484011181841117156125255750505050610ee0565b8284019250825191508082111561253f5750505050610ee0565b503d8301602082840101111561255757505050610ee0565b601f01601f1916810160200160405291505090565b6001600160a01b038116811461258157600080fd5b5056fe47656c61746f4b7279737473616c3a20496e73756666696369656e7420616c6c6f77616e636547656c61746f4b7279737473616c3a2054696d65506173736564427574457870656374656452657475726e546f6f4c6f7747656c61746f4b7279737473616c3a20496e73756666696369656e742062616c616e6365a264697066735822122045dad6da66748d1ec7570cdc3889645f66c9ad6486d6a7b6cde53b4b444c951b64736f6c63430007000033",
  "devdoc": {
    "kind": "dev",
    "methods": {
      "checkTimeAndReturn(uint256,address,address,address,uint256,uint256,uint256)": {
        "details": "Abi encode these parameter inputs. Use a placeholder for _taskReceiptId.",
        "params": {
          "_taskReceiptId": "Will be stripped from encoded data and replaced by  the value passed in from GelatoCore."
        }
      },
      "execPayload(uint256,address,address,((address,bytes)[],(address,bytes,uint8,uint8,uint256,bool)[],uint256,uint256),uint256)": {
        "details": "Called by GelatoCore at execution time"
      },
      "getConditionData(address,address,address,uint256,uint256,uint256)": {
        "details": "use this function to encode the data off-chain for the condition data field"
      },
      "ok(uint256,bytes,uint256)": {
        "details": "Called by GelatoCore at execution time",
        "params": {
          "_conditionData": "The encoded data from getConditionData()"
        }
      },
      "owner()": {
        "details": "Returns the address of the current owner."
      },
      "renounceOwnership()": {
        "details": "Leaves the contract without owner. It will not be possible to call `onlyOwner` functions anymore. Can only be called by the current owner. NOTE: Renouncing ownership will leave the contract without an owner, thereby removing any functionality that is only available to the owner."
      },
      "transferOwnership(address)": {
        "details": "Transfers ownership of the contract to a new account (`newOwner`). Can only be called by the current owner."
      }
    },
    "version": 1
  },
  "userdoc": {
    "kind": "user",
    "methods": {},
    "version": 1
  },
  "storageLayout": {
    "storage": [
      {
        "astId": 312,
        "contract": "contracts/gelato/GelatoKrystal.sol:GelatoKrystal",
        "label": "_owner",
        "offset": 0,
        "slot": "0",
        "type": "t_address"
      },
      {
        "astId": 2132,
        "contract": "contracts/gelato/GelatoKrystal.sol:GelatoKrystal",
        "label": "refTime",
        "offset": 0,
        "slot": "1",
        "type": "t_mapping(t_address,t_mapping(t_uint256,t_uint256))"
      },
      {
        "astId": 2138,
        "contract": "contracts/gelato/GelatoKrystal.sol:GelatoKrystal",
        "label": "totalToSpend",
        "offset": 0,
        "slot": "2",
        "type": "t_mapping(t_address,t_mapping(t_address,t_uint256))"
      },
      {
        "astId": 2153,
        "contract": "contracts/gelato/GelatoKrystal.sol:GelatoKrystal",
        "label": "platformWallet",
        "offset": 0,
        "slot": "3",
        "type": "t_address_payable"
      }
    ],
    "types": {
      "t_address": {
        "encoding": "inplace",
        "label": "address",
        "numberOfBytes": "20"
      },
      "t_address_payable": {
        "encoding": "inplace",
        "label": "address payable",
        "numberOfBytes": "20"
      },
      "t_mapping(t_address,t_mapping(t_address,t_uint256))": {
        "encoding": "mapping",
        "key": "t_address",
        "label": "mapping(address => mapping(address => uint256))",
        "numberOfBytes": "32",
        "value": "t_mapping(t_address,t_uint256)"
      },
      "t_mapping(t_address,t_mapping(t_uint256,t_uint256))": {
        "encoding": "mapping",
        "key": "t_address",
        "label": "mapping(address => mapping(uint256 => uint256))",
        "numberOfBytes": "32",
        "value": "t_mapping(t_uint256,t_uint256)"
      },
      "t_mapping(t_address,t_uint256)": {
        "encoding": "mapping",
        "key": "t_address",
        "label": "mapping(address => uint256)",
        "numberOfBytes": "32",
        "value": "t_uint256"
      },
      "t_mapping(t_uint256,t_uint256)": {
        "encoding": "mapping",
        "key": "t_uint256",
        "label": "mapping(uint256 => uint256)",
        "numberOfBytes": "32",
        "value": "t_uint256"
      },
      "t_uint256": {
        "encoding": "inplace",
        "label": "uint256",
        "numberOfBytes": "32"
      }
    }
  }
}