{
  "address": "0x301E130DAA16B2F8FAeB21E1a328EAB0d606AC12",
  "abi": [
    {
      "inputs": [
        {
          "internalType": "contract IKyberProxy",
          "name": "_kyberProxy",
          "type": "address"
        },
        {
          "internalType": "contract IUniswapV2Router02",
          "name": "_uniRouterV2",
          "type": "address"
        },
        {
          "internalType": "contract IUniswapV2Router02",
          "name": "_sushiRouterV2",
          "type": "address"
        },
        {
          "internalType": "address",
          "name": "_gelato",
          "type": "address"
        }
      ],
      "stateMutability": "nonpayable",
      "type": "constructor"
    },
    {
      "anonymous": false,
      "inputs": [
        {
          "indexed": false,
          "internalType": "address[]",
          "name": "wallets",
          "type": "address[]"
        },
        {
          "indexed": false,
          "internalType": "address[]",
          "name": "tokens",
          "type": "address[]"
        },
        {
          "indexed": false,
          "internalType": "address",
          "name": "claimer",
          "type": "address"
        }
      ],
      "name": "ClaimedPlatformFees",
      "type": "event"
    },
    {
      "anonymous": false,
      "inputs": [
        {
          "indexed": true,
          "internalType": "uint256",
          "name": "id",
          "type": "uint256"
        },
        {
          "components": [
            {
              "internalType": "address",
              "name": "user",
              "type": "address"
            },
            {
              "internalType": "address",
              "name": "inToken",
              "type": "address"
            },
            {
              "internalType": "address",
              "name": "outToken",
              "type": "address"
            },
            {
              "internalType": "uint256",
              "name": "amountPerTrade",
              "type": "uint256"
            },
            {
              "internalType": "uint256",
              "name": "nTradesLeft",
              "type": "uint256"
            },
            {
              "internalType": "uint256",
              "name": "minSlippage",
              "type": "uint256"
            },
            {
              "internalType": "uint256",
              "name": "maxSlippage",
              "type": "uint256"
            },
            {
              "internalType": "uint256",
              "name": "delay",
              "type": "uint256"
            },
            {
              "internalType": "uint256",
              "name": "lastExecutionTime",
              "type": "uint256"
            },
            {
              "internalType": "address",
              "name": "platformWallet",
              "type": "address"
            },
            {
              "internalType": "uint256",
              "name": "platformFeeBps",
              "type": "uint256"
            }
          ],
          "indexed": false,
          "internalType": "struct GelatoDCA.ExecOrder",
          "name": "order",
          "type": "tuple"
        },
        {
          "indexed": false,
          "internalType": "uint256",
          "name": "outAmount",
          "type": "uint256"
        }
      ],
      "name": "LogDCATrade",
      "type": "event"
    },
    {
      "anonymous": false,
      "inputs": [
        {
          "indexed": true,
          "internalType": "uint256",
          "name": "taskId",
          "type": "uint256"
        },
        {
          "indexed": true,
          "internalType": "address",
          "name": "executor",
          "type": "address"
        },
        {
          "indexed": false,
          "internalType": "uint256",
          "name": "postExecFee",
          "type": "uint256"
        },
        {
          "indexed": false,
          "internalType": "uint256",
          "name": "rate",
          "type": "uint256"
        },
        {
          "indexed": false,
          "internalType": "address",
          "name": "creditToken",
          "type": "address"
        }
      ],
      "name": "LogExecSuccess",
      "type": "event"
    },
    {
      "anonymous": false,
      "inputs": [
        {
          "indexed": true,
          "internalType": "uint256",
          "name": "id",
          "type": "uint256"
        },
        {
          "components": [
            {
              "internalType": "address",
              "name": "user",
              "type": "address"
            },
            {
              "internalType": "address",
              "name": "inToken",
              "type": "address"
            },
            {
              "internalType": "address",
              "name": "outToken",
              "type": "address"
            },
            {
              "internalType": "uint256",
              "name": "amountPerTrade",
              "type": "uint256"
            },
            {
              "internalType": "uint256",
              "name": "nTradesLeft",
              "type": "uint256"
            },
            {
              "internalType": "uint256",
              "name": "minSlippage",
              "type": "uint256"
            },
            {
              "internalType": "uint256",
              "name": "maxSlippage",
              "type": "uint256"
            },
            {
              "internalType": "uint256",
              "name": "delay",
              "type": "uint256"
            },
            {
              "internalType": "uint256",
              "name": "lastExecutionTime",
              "type": "uint256"
            },
            {
              "internalType": "address",
              "name": "platformWallet",
              "type": "address"
            },
            {
              "internalType": "uint256",
              "name": "platformFeeBps",
              "type": "uint256"
            }
          ],
          "indexed": false,
          "internalType": "struct GelatoDCA.ExecOrder",
          "name": "order",
          "type": "tuple"
        }
      ],
      "name": "LogTaskCancelled",
      "type": "event"
    },
    {
      "anonymous": false,
      "inputs": [
        {
          "indexed": true,
          "internalType": "address",
          "name": "remover",
          "type": "address"
        },
        {
          "indexed": true,
          "internalType": "bytes32",
          "name": "taskHash",
          "type": "bytes32"
        }
      ],
      "name": "LogTaskRemoved",
      "type": "event"
    },
    {
      "anonymous": false,
      "inputs": [
        {
          "indexed": true,
          "internalType": "uint256",
          "name": "id",
          "type": "uint256"
        },
        {
          "indexed": true,
          "internalType": "address",
          "name": "user",
          "type": "address"
        },
        {
          "indexed": true,
          "internalType": "bytes32",
          "name": "taskHash",
          "type": "bytes32"
        },
        {
          "indexed": false,
          "internalType": "bytes",
          "name": "payload",
          "type": "bytes"
        }
      ],
      "name": "LogTaskStored",
      "type": "event"
    },
    {
      "anonymous": false,
      "inputs": [
        {
          "indexed": true,
          "internalType": "uint256",
          "name": "id",
          "type": "uint256"
        },
        {
          "components": [
            {
              "internalType": "address",
              "name": "user",
              "type": "address"
            },
            {
              "internalType": "address",
              "name": "inToken",
              "type": "address"
            },
            {
              "internalType": "address",
              "name": "outToken",
              "type": "address"
            },
            {
              "internalType": "uint256",
              "name": "amountPerTrade",
              "type": "uint256"
            },
            {
              "internalType": "uint256",
              "name": "nTradesLeft",
              "type": "uint256"
            },
            {
              "internalType": "uint256",
              "name": "minSlippage",
              "type": "uint256"
            },
            {
              "internalType": "uint256",
              "name": "maxSlippage",
              "type": "uint256"
            },
            {
              "internalType": "uint256",
              "name": "delay",
              "type": "uint256"
            },
            {
              "internalType": "uint256",
              "name": "lastExecutionTime",
              "type": "uint256"
            },
            {
              "internalType": "address",
              "name": "platformWallet",
              "type": "address"
            },
            {
              "internalType": "uint256",
              "name": "platformFeeBps",
              "type": "uint256"
            }
          ],
          "indexed": false,
          "internalType": "struct GelatoDCA.ExecOrder",
          "name": "order",
          "type": "tuple"
        }
      ],
      "name": "LogTaskSubmitted",
      "type": "event"
    },
    {
      "anonymous": false,
      "inputs": [
        {
          "indexed": true,
          "internalType": "uint256",
          "name": "id",
          "type": "uint256"
        },
        {
          "components": [
            {
              "internalType": "address",
              "name": "user",
              "type": "address"
            },
            {
              "internalType": "address",
              "name": "inToken",
              "type": "address"
            },
            {
              "internalType": "address",
              "name": "outToken",
              "type": "address"
            },
            {
              "internalType": "uint256",
              "name": "amountPerTrade",
              "type": "uint256"
            },
            {
              "internalType": "uint256",
              "name": "nTradesLeft",
              "type": "uint256"
            },
            {
              "internalType": "uint256",
              "name": "minSlippage",
              "type": "uint256"
            },
            {
              "internalType": "uint256",
              "name": "maxSlippage",
              "type": "uint256"
            },
            {
              "internalType": "uint256",
              "name": "delay",
              "type": "uint256"
            },
            {
              "internalType": "uint256",
              "name": "lastExecutionTime",
              "type": "uint256"
            },
            {
              "internalType": "address",
              "name": "platformWallet",
              "type": "address"
            },
            {
              "internalType": "uint256",
              "name": "platformFeeBps",
              "type": "uint256"
            }
          ],
          "indexed": false,
          "internalType": "struct GelatoDCA.ExecOrder",
          "name": "order",
          "type": "tuple"
        }
      ],
      "name": "LogTaskUpdated",
      "type": "event"
    },
    {
      "inputs": [],
      "name": "BPS",
      "outputs": [
        {
          "internalType": "uint256",
          "name": "",
          "type": "uint256"
        }
      ],
      "stateMutability": "view",
      "type": "function"
    },
    {
      "inputs": [],
      "name": "HINT",
      "outputs": [
        {
          "internalType": "bytes",
          "name": "",
          "type": "bytes"
        }
      ],
      "stateMutability": "view",
      "type": "function"
    },
    {
      "inputs": [
        {
          "components": [
            {
              "internalType": "address",
              "name": "user",
              "type": "address"
            },
            {
              "internalType": "address",
              "name": "inToken",
              "type": "address"
            },
            {
              "internalType": "address",
              "name": "outToken",
              "type": "address"
            },
            {
              "internalType": "uint256",
              "name": "amountPerTrade",
              "type": "uint256"
            },
            {
              "internalType": "uint256",
              "name": "nTradesLeft",
              "type": "uint256"
            },
            {
              "internalType": "uint256",
              "name": "minSlippage",
              "type": "uint256"
            },
            {
              "internalType": "uint256",
              "name": "maxSlippage",
              "type": "uint256"
            },
            {
              "internalType": "uint256",
              "name": "delay",
              "type": "uint256"
            },
            {
              "internalType": "uint256",
              "name": "lastExecutionTime",
              "type": "uint256"
            },
            {
              "internalType": "address",
              "name": "platformWallet",
              "type": "address"
            },
            {
              "internalType": "uint256",
              "name": "platformFeeBps",
              "type": "uint256"
            }
          ],
          "internalType": "struct GelatoDCA.ExecOrder",
          "name": "_order",
          "type": "tuple"
        },
        {
          "internalType": "uint256",
          "name": "_id",
          "type": "uint256"
        }
      ],
      "name": "cancel",
      "outputs": [],
      "stateMutability": "nonpayable",
      "type": "function"
    },
    {
      "inputs": [
        {
          "internalType": "address[]",
          "name": "_platformWallets",
          "type": "address[]"
        },
        {
          "internalType": "address[]",
          "name": "_tokens",
          "type": "address[]"
        }
      ],
      "name": "claimPlatformFees",
      "outputs": [],
      "stateMutability": "nonpayable",
      "type": "function"
    },
    {
      "inputs": [
        {
          "components": [
            {
              "internalType": "address",
              "name": "user",
              "type": "address"
            },
            {
              "internalType": "address",
              "name": "inToken",
              "type": "address"
            },
            {
              "internalType": "address",
              "name": "outToken",
              "type": "address"
            },
            {
              "internalType": "uint256",
              "name": "amountPerTrade",
              "type": "uint256"
            },
            {
              "internalType": "uint256",
              "name": "nTradesLeft",
              "type": "uint256"
            },
            {
              "internalType": "uint256",
              "name": "minSlippage",
              "type": "uint256"
            },
            {
              "internalType": "uint256",
              "name": "maxSlippage",
              "type": "uint256"
            },
            {
              "internalType": "uint256",
              "name": "delay",
              "type": "uint256"
            },
            {
              "internalType": "uint256",
              "name": "lastExecutionTime",
              "type": "uint256"
            },
            {
              "internalType": "address",
              "name": "platformWallet",
              "type": "address"
            },
            {
              "internalType": "uint256",
              "name": "platformFeeBps",
              "type": "uint256"
            }
          ],
          "internalType": "struct GelatoDCA.ExecOrder",
          "name": "_order",
          "type": "tuple"
        },
        {
          "internalType": "uint256",
          "name": "_id",
          "type": "uint256"
        },
        {
          "internalType": "enum GelatoDCA.Dex",
          "name": "_protocol",
          "type": "uint8"
        },
        {
          "components": [
            {
              "internalType": "uint256",
              "name": "amount",
              "type": "uint256"
            },
            {
              "internalType": "uint256",
              "name": "swapRate",
              "type": "uint256"
            },
            {
              "internalType": "bool",
              "name": "isOutToken",
              "type": "bool"
            }
          ],
          "internalType": "struct Fee",
          "name": "_fee",
          "type": "tuple"
        },
        {
          "internalType": "address[]",
          "name": "_tradePath",
          "type": "address[]"
        }
      ],
      "name": "exec",
      "outputs": [],
      "stateMutability": "nonpayable",
      "type": "function"
    },
    {
      "inputs": [],
      "name": "gelato",
      "outputs": [
        {
          "internalType": "address",
          "name": "",
          "type": "address"
        }
      ],
      "stateMutability": "view",
      "type": "function"
    },
    {
      "inputs": [
        {
          "internalType": "contract IERC20",
          "name": "_src",
          "type": "address"
        },
        {
          "internalType": "contract IERC20",
          "name": "_dest",
          "type": "address"
        },
        {
          "internalType": "uint256",
          "name": "_inAmount",
          "type": "uint256"
        },
        {
          "internalType": "uint256",
          "name": "_platformFee",
          "type": "uint256"
        },
        {
          "internalType": "bytes",
          "name": "_hint",
          "type": "bytes"
        }
      ],
      "name": "getExpectedReturnKyber",
      "outputs": [
        {
          "internalType": "uint256",
          "name": "outAmount",
          "type": "uint256"
        },
        {
          "internalType": "uint256",
          "name": "expectedRate",
          "type": "uint256"
        }
      ],
      "stateMutability": "view",
      "type": "function"
    },
    {
      "inputs": [
        {
          "internalType": "contract IUniswapV2Router02",
          "name": "_router",
          "type": "address"
        },
        {
          "internalType": "uint256",
          "name": "_inAmount",
          "type": "uint256"
        },
        {
          "internalType": "address[]",
          "name": "_tradePath",
          "type": "address[]"
        },
        {
          "internalType": "uint256",
          "name": "_platformFee",
          "type": "uint256"
        }
      ],
      "name": "getExpectedReturnUniswap",
      "outputs": [
        {
          "internalType": "uint256",
          "name": "outAmount",
          "type": "uint256"
        },
        {
          "internalType": "uint256",
          "name": "expectedRate",
          "type": "uint256"
        }
      ],
      "stateMutability": "view",
      "type": "function"
    },
    {
      "inputs": [
        {
          "components": [
            {
              "internalType": "address",
              "name": "user",
              "type": "address"
            },
            {
              "internalType": "address",
              "name": "inToken",
              "type": "address"
            },
            {
              "internalType": "address",
              "name": "outToken",
              "type": "address"
            },
            {
              "internalType": "uint256",
              "name": "amountPerTrade",
              "type": "uint256"
            },
            {
              "internalType": "uint256",
              "name": "nTradesLeft",
              "type": "uint256"
            },
            {
              "internalType": "uint256",
              "name": "minSlippage",
              "type": "uint256"
            },
            {
              "internalType": "uint256",
              "name": "maxSlippage",
              "type": "uint256"
            },
            {
              "internalType": "uint256",
              "name": "delay",
              "type": "uint256"
            },
            {
              "internalType": "uint256",
              "name": "lastExecutionTime",
              "type": "uint256"
            },
            {
              "internalType": "address",
              "name": "platformWallet",
              "type": "address"
            },
            {
              "internalType": "uint256",
              "name": "platformFeeBps",
              "type": "uint256"
            }
          ],
          "internalType": "struct GelatoDCA.ExecOrder",
          "name": "_order",
          "type": "tuple"
        }
      ],
      "name": "getMinReturn",
      "outputs": [
        {
          "internalType": "uint256",
          "name": "minReturn",
          "type": "uint256"
        }
      ],
      "stateMutability": "view",
      "type": "function"
    },
    {
      "inputs": [
        {
          "internalType": "enum GelatoDCA.Dex",
          "name": "_dex",
          "type": "uint8"
        }
      ],
      "name": "getProtocolAddress",
      "outputs": [
        {
          "internalType": "address",
          "name": "",
          "type": "address"
        }
      ],
      "stateMutability": "view",
      "type": "function"
    },
    {
      "inputs": [
        {
          "internalType": "bytes",
          "name": "_blob",
          "type": "bytes"
        },
        {
          "internalType": "uint256",
          "name": "_taskId",
          "type": "uint256"
        }
      ],
      "name": "hashTask",
      "outputs": [
        {
          "internalType": "bytes32",
          "name": "",
          "type": "bytes32"
        }
      ],
      "stateMutability": "pure",
      "type": "function"
    },
    {
      "inputs": [
        {
          "internalType": "address",
          "name": "_inToken",
          "type": "address"
        },
        {
          "internalType": "address",
          "name": "_outToken",
          "type": "address"
        }
      ],
      "name": "isSwapPossible",
      "outputs": [
        {
          "internalType": "bool",
          "name": "isPossible",
          "type": "bool"
        }
      ],
      "stateMutability": "view",
      "type": "function"
    },
    {
      "inputs": [
        {
          "components": [
            {
              "internalType": "address",
              "name": "user",
              "type": "address"
            },
            {
              "internalType": "address",
              "name": "inToken",
              "type": "address"
            },
            {
              "internalType": "address",
              "name": "outToken",
              "type": "address"
            },
            {
              "internalType": "uint256",
              "name": "amountPerTrade",
              "type": "uint256"
            },
            {
              "internalType": "uint256",
              "name": "nTradesLeft",
              "type": "uint256"
            },
            {
              "internalType": "uint256",
              "name": "minSlippage",
              "type": "uint256"
            },
            {
              "internalType": "uint256",
              "name": "maxSlippage",
              "type": "uint256"
            },
            {
              "internalType": "uint256",
              "name": "delay",
              "type": "uint256"
            },
            {
              "internalType": "uint256",
              "name": "lastExecutionTime",
              "type": "uint256"
            },
            {
              "internalType": "address",
              "name": "platformWallet",
              "type": "address"
            },
            {
              "internalType": "uint256",
              "name": "platformFeeBps",
              "type": "uint256"
            }
          ],
          "internalType": "struct GelatoDCA.ExecOrder",
          "name": "_order",
          "type": "tuple"
        },
        {
          "internalType": "uint256",
          "name": "_id",
          "type": "uint256"
        }
      ],
      "name": "isTaskSubmitted",
      "outputs": [
        {
          "internalType": "bool",
          "name": "",
          "type": "bool"
        }
      ],
      "stateMutability": "view",
      "type": "function"
    },
    {
      "inputs": [],
      "name": "kyberProxy",
      "outputs": [
        {
          "internalType": "contract IKyberProxy",
          "name": "",
          "type": "address"
        }
      ],
      "stateMutability": "view",
      "type": "function"
    },
    {
      "inputs": [
        {
          "internalType": "address",
          "name": "",
          "type": "address"
        },
        {
          "internalType": "address",
          "name": "",
          "type": "address"
        }
      ],
      "name": "platformWalletFees",
      "outputs": [
        {
          "internalType": "uint256",
          "name": "",
          "type": "uint256"
        }
      ],
      "stateMutability": "view",
      "type": "function"
    },
    {
      "inputs": [
        {
          "components": [
            {
              "internalType": "address",
              "name": "inToken",
              "type": "address"
            },
            {
              "internalType": "address",
              "name": "outToken",
              "type": "address"
            },
            {
              "internalType": "uint256",
              "name": "amountPerTrade",
              "type": "uint256"
            },
            {
              "internalType": "uint256",
              "name": "numTrades",
              "type": "uint256"
            },
            {
              "internalType": "uint256",
              "name": "minSlippage",
              "type": "uint256"
            },
            {
              "internalType": "uint256",
              "name": "maxSlippage",
              "type": "uint256"
            },
            {
              "internalType": "uint256",
              "name": "delay",
              "type": "uint256"
            },
            {
              "internalType": "address",
              "name": "platformWallet",
              "type": "address"
            },
            {
              "internalType": "uint256",
              "name": "platformFeeBps",
              "type": "uint256"
            }
          ],
          "internalType": "struct GelatoDCA.SubmitOrder",
          "name": "_order",
          "type": "tuple"
        },
        {
          "internalType": "bool",
          "name": "_isSubmitAndExec",
          "type": "bool"
        }
      ],
      "name": "submit",
      "outputs": [],
      "stateMutability": "payable",
      "type": "function"
    },
    {
      "inputs": [
        {
          "components": [
            {
              "internalType": "address",
              "name": "inToken",
              "type": "address"
            },
            {
              "internalType": "address",
              "name": "outToken",
              "type": "address"
            },
            {
              "internalType": "uint256",
              "name": "amountPerTrade",
              "type": "uint256"
            },
            {
              "internalType": "uint256",
              "name": "numTrades",
              "type": "uint256"
            },
            {
              "internalType": "uint256",
              "name": "minSlippage",
              "type": "uint256"
            },
            {
              "internalType": "uint256",
              "name": "maxSlippage",
              "type": "uint256"
            },
            {
              "internalType": "uint256",
              "name": "delay",
              "type": "uint256"
            },
            {
              "internalType": "address",
              "name": "platformWallet",
              "type": "address"
            },
            {
              "internalType": "uint256",
              "name": "platformFeeBps",
              "type": "uint256"
            }
          ],
          "internalType": "struct GelatoDCA.SubmitOrder",
          "name": "_order",
          "type": "tuple"
        },
        {
          "internalType": "enum GelatoDCA.Dex",
          "name": "_protocol",
          "type": "uint8"
        },
        {
          "internalType": "uint256",
          "name": "_minReturnOrRate",
          "type": "uint256"
        },
        {
          "internalType": "address[]",
          "name": "_tradePath",
          "type": "address[]"
        }
      ],
      "name": "submitAndExec",
      "outputs": [],
      "stateMutability": "payable",
      "type": "function"
    },
    {
      "inputs": [],
      "name": "sushiRouterV2",
      "outputs": [
        {
          "internalType": "contract IUniswapV2Router02",
          "name": "",
          "type": "address"
        }
      ],
      "stateMutability": "view",
      "type": "function"
    },
    {
      "inputs": [],
      "name": "taskId",
      "outputs": [
        {
          "internalType": "uint256",
          "name": "",
          "type": "uint256"
        }
      ],
      "stateMutability": "view",
      "type": "function"
    },
    {
      "inputs": [
        {
          "internalType": "bytes32",
          "name": "",
          "type": "bytes32"
        }
      ],
      "name": "taskOwner",
      "outputs": [
        {
          "internalType": "address",
          "name": "",
          "type": "address"
        }
      ],
      "stateMutability": "view",
      "type": "function"
    },
    {
      "inputs": [],
      "name": "uniRouterV2",
      "outputs": [
        {
          "internalType": "contract IUniswapV2Router02",
          "name": "",
          "type": "address"
        }
      ],
      "stateMutability": "view",
      "type": "function"
    },
    {
      "inputs": [
        {
          "internalType": "bytes",
          "name": "_bytes",
          "type": "bytes"
        },
        {
          "internalType": "uint256",
          "name": "_id",
          "type": "uint256"
        },
        {
          "internalType": "address",
          "name": "_user",
          "type": "address"
        }
      ],
      "name": "verifyTask",
      "outputs": [
        {
          "internalType": "bool",
          "name": "",
          "type": "bool"
        }
      ],
      "stateMutability": "view",
      "type": "function"
    },
    {
      "stateMutability": "payable",
      "type": "receive"
    }
  ],
  "transactionHash": "0x1a23e81b0dd1d1301ef8681bfa1acc83c4553e1507591eb142cae7a227bca42e",
  "args": [
    "0x818E6FECD516Ecc3849DAf6845e3EC868087B755",
    "0x7a250d5630b4cf539739df2c5dacb4c659f2488d",
    "0x7a250d5630b4cf539739df2c5dacb4c659f2488d",
    "0xCc4CcD69D31F9FfDBD3BFfDe49c6aA886DaB98d9"
  ],
  "solcInputHash": "1a094e12deadcf0588ee671c05181a22",
  "bytecode": "0x6101006040523480156200001257600080fd5b506040516200445338038062004453833981016040819052620000359162000069565b6001600160601b0319606091821b8116608052600160025593811b841660e05291821b831660a052901b1660c052620000e9565b600080600080608085870312156200007f578384fd5b84516200008c81620000d0565b60208601519094506200009f81620000d0565b6040860151909350620000b281620000d0565b6060860151909250620000c581620000d0565b939692955090935050565b6001600160a01b0381168114620000e657600080fd5b50565b60805160601c60a05160601c60c05160601c60e05160601c6142bb62000198600039600081816114310152818161145801528181611548015261189e015260008181610a4f01528181610aec015281816115e6015261222d015260008181610a7501528181610b100152818161159701526122530152600081816103f601528181610cc501528181610d2901528181610f9f0152818161119f015281816111e0015261120d01526142bb6000f3fe6080604052600436106101395760003560e01c8063693362e1116100ab578063a7c477971161006f578063a7c4779714610334578063babdadd414610354578063d83db9f914610374578063f0eeed8114610396578063f2459d63146103ab578063f32e786f146103cb57610140565b8063693362e1146102a1578063729d6cb5146102c15780638eb77f38146102e1578063a1efea0f14610301578063a370931e1461032157610140565b8063360e6482116100fd578063360e6482146101f4578063368de62c1461020757806339f99a591461022957806342c956bc1461023e578063573ea5751461026c578063578c56481461028157610140565b8063249d39e91461014557806328bca620146101705780632ed956631461019d5780633322b23d146101bf57806335c7c3cf146101d457610140565b3661014057005b600080fd5b34801561015157600080fd5b5061015a6103eb565b6040516101679190613798565b60405180910390f35b34801561017c57600080fd5b5061019061018b366004612f73565b6103f1565b604051610167919061378d565b3480156101a957600080fd5b506101bd6101b83660046132ac565b610526565b005b3480156101cb57600080fd5b5061015a610690565b3480156101e057600080fd5b506101bd6101ef366004612fab565b610696565b6101bd61020236600461348e565b61092a565b34801561021357600080fd5b5061021c610aea565b60405161016791906136e0565b34801561023557600080fd5b5061021c610b0e565b34801561024a57600080fd5b5061025e610259366004613230565b610b32565b604051610167929190613f60565b34801561027857600080fd5b5061021c610cc3565b34801561028d57600080fd5b5061019061029c3660046132ac565b610ce7565b3480156102ad57600080fd5b5061015a6102bc3660046133b1565b610d24565b3480156102cd57600080fd5b506101906102dc366004613132565b610ef8565b3480156102ed57600080fd5b506101bd6102fc3660046132d8565b610f37565b34801561030d57600080fd5b5061015a61031c3660046130ef565b611288565b6101bd61032f366004613460565b6112bb565b34801561034057600080fd5b5061015a61034f366004612f73565b6113e4565b34801561036057600080fd5b5061021c61036f3660046130d7565b611401565b34801561038057600080fd5b5061038961141c565b60405161016791906137a1565b3480156103a257600080fd5b5061021c61142f565b3480156103b757600080fd5b5061025e6103c636600461318b565b611453565b3480156103d757600080fd5b5061021c6103e6366004613292565b61151c565b61271081565b6000807f00000000000000000000000000000000000000000000000000000000000000006001600160a01b031663d34ac2bc6040518163ffffffff1660e01b815260040160206040518083038186803b15801561044d57600080fd5b505afa158015610461573d6000803e3d6000fd5b505050506040513d601f19601f820116820180604052508101906104859190612f57565b6001600160a01b0316633c772b6c670de0b6b3a764000086866040518463ffffffff1660e01b81526004016104bc93929190613894565b604080518083038186803b1580156104d357600080fd5b505afa1580156104e7573d6000803e3d6000fd5b505050506040513d601f19601f8201168201806040525081019061050b9190613518565b509050801561051b57600161051e565b60005b949350505050565b6002805414156105515760405162461bcd60e51b815260040161054890613d9e565b60405180910390fd5b600280556040516105809061056a908490602001613e49565b6040516020818303038152906040528233611627565b60008051602061423b83398151915261059f6040840160208501612f3b565b6001600160a01b0316141561064f5760006105c26080840135606085013561413f565b905060006105d36020850185612f3b565b6001600160a01b0316826040516105e9906136dd565b60006040518083038185875af1925050503d8060008114610626576040519150601f19603f3d011682016040523d82523d6000602084013e61062b565b606091505b505090508061064c5760405162461bcd60e51b815260040161054890613dd5565b50505b807f204267667d805fde65d9f15319824508d2f46b26ad1ede2c9f5b27eea79349498360405161067f9190613e49565b60405180910390a250506001600255565b60005481565b6002805414156106b85760405162461bcd60e51b815260040161054890613d9e565b6002805560005b838110156108df5760005b828110156108cc576000600460008888868181106106f857634e487b7160e01b600052603260045260246000fd5b905060200201602081019061070d9190612f3b565b6001600160a01b03166001600160a01b03168152602001908152602001600020600086868581811061074f57634e487b7160e01b600052603260045260246000fd5b90506020020160208101906107649190612f3b565b6001600160a01b03166001600160a01b0316815260200190815260200160002054905060018111156108b9576001600460008989878181106107b657634e487b7160e01b600052603260045260246000fd5b90506020020160208101906107cb9190612f3b565b6001600160a01b03166001600160a01b03168152602001908152602001600020600087878681811061080d57634e487b7160e01b600052603260045260246000fd5b90506020020160208101906108229190612f3b565b6001600160a01b031681526020810191909152604001600020556108b987878581811061085f57634e487b7160e01b600052603260045260246000fd5b90506020020160208101906108749190612f3b565b86868581811061089457634e487b7160e01b600052603260045260246000fd5b90506020020160208101906108a99190612f3b565b6108b460018561415e565b6116bb565b50806108c4816141a1565b9150506106ca565b50806108d7816141a1565b9150506106bf565b507fcbef5ab8ab58a3dba86704ce124241889d80c3a5fe3caaf4286b7e8c709a6c2d848484843360405161091795949392919061374b565b60405180910390a1505060016002555050565b600185606001511161094e5760405162461bcd60e51b815260040161054890613c21565b6001856060015161095f919061415e565b606086015261096f8560016112bb565b84516001600160a01b031660008051602061423b833981519152146109d157604085015185516109ae916001600160a01b039091169033903090611767565b6109d16109ba8561151c565b604087015187516001600160a01b031691906117c5565b60008460028111156109f357634e487b7160e01b600052602160045260246000fd5b1415610a2357610a1d85600001518660200151876040015186338a60e001518b6101000151611870565b50610ae3565b610ae16001856002811115610a4857634e487b7160e01b600052602160045260246000fd5b14610a73577f0000000000000000000000000000000000000000000000000000000000000000610a95565b7f00000000000000000000000000000000000000000000000000000000000000005b838380806020026020016040519081016040528093929190818152602001838360200280828437600092019190915250505050604088015160e08901516101008a015188913391611969565b505b5050505050565b7f000000000000000000000000000000000000000000000000000000000000000081565b7f000000000000000000000000000000000000000000000000000000000000000081565b6000806127108310610b4957506000905080610cb9565b6000612710610b58858261415e565b610b62908961413f565b610b6c919061400b565b905080610b80576000809250925050610cb9565b60405163d06ca61f60e01b81526001600160a01b0389169063d06ca61f90610bb09084908a908a90600401613f11565b60006040518083038186803b158015610bc857600080fd5b505afa925050508015610bfd57506040513d6000823e601f3d908101601f19168201604052610bfa9190810190613014565b60015b610c0a5760009250610c40565b80610c1660018861415e565b81518110610c3457634e487b7160e01b600052603260045260246000fd5b60200260200101519350505b610cb58184610c8389896000818110610c6957634e487b7160e01b600052603260045260246000fd5b9050602002016020810190610c7e9190612f3b565b611e47565b610cb08a8a610c9360018261415e565b818110610c6957634e487b7160e01b600052603260045260246000fd5b611ef7565b9150505b9550959350505050565b7f000000000000000000000000000000000000000000000000000000000000000081565b6000610d1b83604051602001610cfd9190613e49565b60408051601f19818403018152919052836102dc6020870187612f3b565b90505b92915050565b6000807f00000000000000000000000000000000000000000000000000000000000000006001600160a01b031663d34ac2bc6040518163ffffffff1660e01b815260040160206040518083038186803b158015610d8057600080fd5b505afa158015610d94573d6000803e3d6000fd5b505050506040513d601f19601f82011682018060405250810190610db89190612f57565b6001600160a01b0316633c772b6c8460600151856020015186604001516040518463ffffffff1660e01b8152600401610df393929190613894565b604080518083038186803b158015610e0a57600080fd5b505afa158015610e1e573d6000803e3d6000fd5b505050506040513d601f19601f82011682018060405250810190610e429190613518565b50905060008111610e655760405162461bcd60e51b8152600401610548906138b3565b60008360e00151846101000151610e7c9190613ff3565b610e86904261415e565b905060008460a00151612710610e9c919061415e565b905060008560c00151612710610eb2919061415e565b9050600083831115610ecb57610ec8848461415e565b90505b80821115610ed65750805b612710610ee3828761413f565b610eed919061400b565b979650505050505050565b6000816001600160a01b031660016000610f128787611288565b81526020810191909152604001600020546001600160a01b03161490505b9392505050565b8260400151610f5557610f506040870160208801612f3b565b610f65565b610f656060870160408801612f3b565b610f726020880188612f3b565b87604051602001610f839190613e49565b60408051601f19818403018152919052855160208701518991907f00000000000000000000000000000000000000000000000000000000000000006001600160a01b03163314610fe55760405162461bcd60e51b815260040161054890613b53565b610ff0848487610ef8565b61100c5760405162461bcd60e51b8152600401610548906139d0565b60018c6080013511156110365761103161102b368e90038e018e6133b1565b8c612021565b611072565b6110728c60405160200161104a9190613e49565b6040516020818303038152906040528c8e600001602081019061106d9190612f3b565b611627565b6000808b600281111561109557634e487b7160e01b600052602160045260246000fd5b14156110c0576110b96110ad368f90038f018f6133b1565b8b5160408d01516120d0565b9050611127565b6111246110d2368f90038f018f6133b1565b8c8b8b80806020026020016040519081016040528093929190818152602001838360200280828437600081840152601f19601f820116905080830192505050505050508d600001518e60400151612137565b90505b89604001511561115a5761115a61114160208f018f612f3b565b8e60400160208101906111549190612f3b565b836116bb565b8b7f98c4d21b786de2bd96414c0d1ee463fe5272bfcc8e25b20af58b4fbc7ca88fe28e8360405161118c929190613e58565b60405180910390a250806111ca576111c57f000000000000000000000000000000000000000000000000000000000000000087846116bb565b611234565b6112048660008051602061423b833981519152847f00000000000000000000000000000000000000000000000000000000000000006122a9565b611234576112347f00000000000000000000000000000000000000000000000000000000000000008784846123a4565b326001600160a01b0316837f1b27e91e321907ef1c086ee1c091eaf6f49fec1bf17ca060d04b74424ac3d29f84848a60405161127293929190613f6e565b60405180910390a3505050505050505050505050565b6000828260405160200161129d9291906137b4565b60405160208183030381529060405280519060200120905092915050565b81516001600160a01b031660008051602061423b833981519152141561133d576000816112fb57826060015183604001516112f6919061413f565b61131a565b606083015161130b906001613ff3565b836040015161131a919061413f565b905080341461133b5760405162461bcd60e51b815260040161054890613afe565b505b6000604051806101600160405280336001600160a01b0316815260200184600001516001600160a01b0316815260200184602001516001600160a01b031681526020018460400151815260200184606001518152602001846080015181526020018460a0015181526020018460c0015181526020014281526020018460e001516001600160a01b0316815260200184610100015181525090506113df81612511565b505050565b600460209081526000928352604080842090915290825290205481565b6001602052600090815260409020546001600160a01b031681565b6040518060200160405280600081525081565b7f000000000000000000000000000000000000000000000000000000000000000081565b6000807f00000000000000000000000000000000000000000000000000000000000000006001600160a01b031663418436bc8989898989896040518763ffffffff1660e01b81526004016114ac969594939291906137d6565b60206040518083038186803b1580156114c457600080fd5b505afa9250505080156114f4575060408051601f3d908101601f191682019092526114f191810190613500565b60015b61150057506000611503565b90505b61150f8888888461257c565b9150965096945050505050565b60008082600281111561153f57634e487b7160e01b600052602160045260246000fd5b141561156c57507f0000000000000000000000000000000000000000000000000000000000000000611622565b600182600281111561158e57634e487b7160e01b600052602160045260246000fd5b14156115bb57507f0000000000000000000000000000000000000000000000000000000000000000611622565b60028260028111156115dd57634e487b7160e01b600052602160045260246000fd5b141561160a57507f0000000000000000000000000000000000000000000000000000000000000000611622565b60405162461bcd60e51b815260040161054890613b9e565b919050565b60006116338484611288565b6000818152600160205260409020549091506001600160a01b0383811691161461166f5760405162461bcd60e51b815260040161054890613d55565b60008181526001602052604080822080546001600160a01b031916905551829133917ff1041a3bd72e4850c477c3f2566e6b04edf9ee16a8ef784e8b8b7727cad4e8ef9190a350505050565b6001600160a01b03821660008051602061423b833981519152141561175c576000836001600160a01b0316826040516116f3906136dd565b60006040518083038185875af1925050503d8060008114611730576040519150601f19603f3d011682016040523d82523d6000602084013e611735565b606091505b50509050806117565760405162461bcd60e51b815260040161054890613ad5565b506113df565b6113df8284836125a3565b6117bf846323b872dd60e01b8585856040516024016117889392919061370e565b60408051601f198184030181529190526020810180516001600160e01b03166001600160e01b0319909316929092179091526125c2565b50505050565b600061184f82856001600160a01b031663dd62ed3e30876040518363ffffffff1660e01b81526004016117f99291906136f4565b60206040518083038186803b15801561181157600080fd5b505afa158015611825573d6000803e3d6000fd5b505050506040513d601f19601f820116820180604052508101906118499190613500565b90612651565b90506117bf8463095ea7b360e01b8584604051602401611788929190613732565b6000806001600160a01b03891660008051602061423b8339815191521461189857600061189a565b865b90507f00000000000000000000000000000000000000000000000000000000000000006001600160a01b031663ae591d54828b8a8c8a6000198d8c8c604051806020016040528060008152506040518b63ffffffff1660e01b815260040161190a9998979695949392919061382f565b6020604051808303818588803b15801561192357600080fd5b505af1158015611937573d6000803e3d6000fd5b50505050506040513d601f19601f8201168201806040525081019061195c9190613500565b9998505050505050505050565b600080612710611979848961413f565b611983919061400b565b90506000611991828961415e565b895190915060009081908b82826119b857634e487b7160e01b600052603260045260246000fd5b602002602001015192508b6001826119d0919061415e565b815181106119ee57634e487b7160e01b600052603260045260246000fd5b6020026020010151915060008051602061423b8339815191526001600160a01b03168c600081518110611a3157634e487b7160e01b600052603260045260246000fd5b60200260200101516001600160a01b03161415611afb578c6001600160a01b031663ad5c46486040518163ffffffff1660e01b815260040160206040518083038186803b158015611a8157600080fd5b505afa158015611a95573d6000803e3d6000fd5b505050506040513d601f19601f82011682018060405250810190611ab99190612f57565b8c600081518110611ada57634e487b7160e01b600052603260045260246000fd5b60200260200101906001600160a01b031690816001600160a01b0316815250505b60008051602061423b8339815191528c611b1660018461415e565b81518110611b3457634e487b7160e01b600052603260045260246000fd5b60200260200101516001600160a01b03161415611c07578c6001600160a01b031663ad5c46486040518163ffffffff1660e01b815260040160206040518083038186803b158015611b8457600080fd5b505afa158015611b98573d6000803e3d6000fd5b505050506040513d601f19601f82011682018060405250810190611bbc9190612f57565b8c611bc860018461415e565b81518110611be657634e487b7160e01b600052603260045260246000fd5b60200260200101906001600160a01b031690816001600160a01b0316815250505b611c12888487612680565b5060606001600160a01b03831660008051602061423b8339815191521415611cc6578c6001600160a01b0316637ff36ab5858c8f8d6000196040518663ffffffff1660e01b8152600401611c699493929190613f2b565b6000604051808303818588803b158015611c8257600080fd5b505af1158015611c96573d6000803e3d6000fd5b50505050506040513d6000823e601f3d908101601f19168201604052611cbf9190810190613014565b9050611e00565b6001600160a01b03821660008051602061423b8339815191521415611d71578c6001600160a01b03166318cbafe5858c8f8d6000196040518663ffffffff1660e01b8152600401611d1b959493929190613f8d565b600060405180830381600087803b158015611d3557600080fd5b505af1158015611d49573d6000803e3d6000fd5b505050506040513d6000823e601f3d908101601f19168201604052611cbf9190810190613014565b8c6001600160a01b03166338ed1739858c8f8d6000196040518663ffffffff1660e01b8152600401611da7959493929190613f8d565b600060405180830381600087803b158015611dc157600080fd5b505af1158015611dd5573d6000803e3d6000fd5b505050506040513d6000823e601f3d908101601f19168201604052611dfd9190810190613014565b90505b8060018251611e0f919061415e565b81518110611e2d57634e487b7160e01b600052603260045260246000fd5b602002602001015195505050505050979650505050505050565b6000611e52826126e2565b90508015611e5f57611622565b506001600160a01b0381166000908152600360205260409020548061162257816001600160a01b031663313ce5676040518163ffffffff1660e01b815260040160206040518083038186803b158015611eb757600080fd5b505afa158015611ecb573d6000803e3d6000fd5b505050506040513d601f19601f82011682018060405250810190611eef919061353b565b60ff16610d1e565b60006b204fce5e3e25026110000000851115611f255760405162461bcd60e51b815260040161054890613d28565b6b204fce5e3e25026110000000841115611f515760405162461bcd60e51b815260040161054890613e1b565b828210611fc5576012611f64848461415e565b1115611f825760405162461bcd60e51b815260040161054890613934565b84611f8d848461415e565b611f9890600a614071565b611fa2919061413f565b611fb4670de0b6b3a76400008661413f565b611fbe919061400b565b905061051e565b6012611fd1838561415e565b1115611fef5760405162461bcd60e51b815260040161054890613bea565b84611ffa838561415e565b61200590600a614071565b612017670de0b6b3a76400008761413f565b611fb4919061413f565b6000826040516020016120349190613e75565b604051602081830303815290604052905060018360800151612056919061415e565b608084015242610100840152604051612093908290612079908690602001613e75565b6040516020818303038152906040528486600001516127f4565b817fc18ccd2a235858ab972767d33f870018e941cec2e8d615f4fc1e630f6d6ea03f846040516120c39190613e75565b60405180910390a2505050565b6000806000806120e3878787600061287c565b60208a015160408b0151939650919450925061211891856121068187858561293c565b858c61012001518d6101400151611870565b9350841561212d5761212a868561415e565b93505b5050509392505050565b6000806000806121498987878b61287c565b9250925092508660008151811061217057634e487b7160e01b600052603260045260246000fd5b60200260200101516001600160a01b031689602001516001600160a01b03161480156121e5575086600188516121a6919061415e565b815181106121c457634e487b7160e01b600052603260045260246000fd5b60200260200101516001600160a01b031689604001516001600160a01b0316145b6122015760405162461bcd60e51b815260040161054890613a59565b612288600189600281111561222657634e487b7160e01b600052602160045260246000fd5b14612251577f0000000000000000000000000000000000000000000000000000000000000000612273565b7f00000000000000000000000000000000000000000000000000000000000000005b888585858e61012001518f6101400151611969565b9350841561229d5761229a868561415e565b93505b50505095945050505050565b6000816001600160a01b031663d34ac2bc6040518163ffffffff1660e01b815260040160206040518083038186803b1580156122e457600080fd5b505afa1580156122f8573d6000803e3d6000fd5b505050506040513d601f19601f8201168201806040525081019061231c9190612f57565b6001600160a01b0316633c772b6c8487876040518463ffffffff1660e01b815260040161234b93929190613894565b604080518083038186803b15801561236257600080fd5b505afa158015612376573d6000803e3d6000fd5b505050506040513d601f19601f8201168201806040525081019061239a9190613518565b5095945050505050565b60408051600280825260608201835260009260208301908036833701905050905083816000815181106123e757634e487b7160e01b600052603260045260246000fd5b60200260200101906001600160a01b031690816001600160a01b03168152505073c02aaa39b223fe8d0a0e5c4f27ead9083c756cc28160018151811061243d57634e487b7160e01b600052603260045260246000fd5b60200260200101906001600160a01b031690816001600160a01b03168152505061247c84737a250d5630b4cf539739df2c5dacb4c659f2488d856117c5565b6040516318cbafe560e01b8152737a250d5630b4cf539739df2c5dacb4c659f2488d906318cbafe5906124bb908690869086908b904290600401613f8d565b600060405180830381600087803b1580156124d557600080fd5b505af11580156124e9573d6000803e3d6000fd5b505050506040513d6000823e601f3d908101601f19168201604052610ae19190810190613014565b600061253e826040516020016125279190613e75565b60408051601f198184030181529190528351612995565b9050807fc18ccd2a235858ab972767d33f870018e941cec2e8d615f4fc1e630f6d6ea03f836040516125709190613e75565b60405180910390a25050565b600061259a8361258b87611e47565b61259487611e47565b85612a2b565b95945050505050565b6113df8363a9059cbb60e01b8484604051602401611788929190613732565b6000612617826040518060400160405280602081526020017f5361666545524332303a206c6f772d6c6576656c2063616c6c206661696c6564815250856001600160a01b0316612b419092919063ffffffff16565b8051909150156113df578080602001905181019061263591906130bb565b6113df5760405162461bcd60e51b815260040161054890613cde565b60008061265e8385613ff3565b905083811015610d1b5760405162461bcd60e51b81526004016105489061396b565b80156113df576001600160a01b038084166000908152600460209081526040808320938616835292905220546126b7908290613ff3565b6001600160a01b03808516600090815260046020908152604080832093871683529290522055505050565b60006001600160a01b03821660008051602061423b833981519152141561270b57506012611622565b6001600160a01b03821673dac17f958d2ee523a2206206994597c13d831ec7141561273857506006611622565b6001600160a01b038216736b175474e89094c44da98b954eedeac495271d0f141561276557506012611622565b6001600160a01b03821673a0b86991c6218b36c1d19d4a2e9eb0ce3606eb48141561279257506006611622565b6001600160a01b038216732260fac5e5542a773aa44fbcfedf7c193bc2c59914156127bf57506008611622565b6001600160a01b03821673dd974d5c2e2928dea5f71b9825b8b646686bd20014156127ec57506012611622565b506000611622565b6127ff848383611627565b600061280b8484611288565b6000818152600160205260409081902080546001600160a01b0319166001600160a01b0386169081179091559051919250829185907ff5357d3629bc09cf03248336fcf9dcacb7c00b58073d98d36ecbdd2cdfc3f76f9061286d908a906137a1565b60405180910390a45050505050565b600080600084156128ab5750308561289388610d24565b61289d9190613ff3565b9150866060015192506128cc565b5085516128b787610d24565b91508587606001516128c9919061415e565b92505b60208701516001600160a01b031660008051602061423b8339815191521461293257865160608801516020890151612911926001600160a01b03909116913090611767565b61293261291d8561151c565b60208901516001600160a01b031690856117c5565b9450945094915050565b60008061296284876040518060600160405280602b815260200161425b602b9139612b50565b9050600061298984876040518060600160405280602c815260200161420f602c9139612b50565b9050610eed8183612c31565b600080600081546129a5906141a1565b919050819055905060006129bb84600054611288565b60008181526001602052604080822080546001600160a01b0319166001600160a01b0388169081179091559154905192935083927ff5357d3629bc09cf03248336fcf9dcacb7c00b58073d98d36ecbdd2cdfc3f76f90612a1c9089906137a1565b60405180910390a45092915050565b60006b204fce5e3e25026110000000851115612a595760405162461bcd60e51b815260040161054890613aab565b612a6e670de0b6b3a76400006298968061413f565b821115612a8d5760405162461bcd60e51b815260040161054890613cb5565b838310612ae6576012612aa0858561415e565b1115612abe5760405162461bcd60e51b815260040161054890613934565b670de0b6b3a7640000612ad1858561415e565b612adc90600a614071565b612017848861413f565b6012612af2848661415e565b1115612b105760405162461bcd60e51b815260040161054890613bea565b612b1a838561415e565b612b2590600a614071565b612b3790670de0b6b3a764000061413f565b611fb4838761413f565b606061051e8484600085612c63565b60006001600160a01b03841660008051602061423b8339815191521415612b78575081610f30565b836001600160a01b031663313ce5676040518163ffffffff1660e01b815260040160206040518083038186803b158015612bb157600080fd5b505afa925050508015612be1575060408051601f3d908101601f19168201909252612bde9181019061353b565b60015b612bff578160405162461bcd60e51b815260040161054891906137a1565b612c0d60ff8216600a614071565b612c1f85670de0b6b3a764000061413f565b612c29919061400b565b915050610f30565b600081612c59612c4985670de0b6b3a7640000612d18565b612c5460028661400b565b612d58565b610d1b919061400b565b606082471015612c855760405162461bcd60e51b815260040161054890613a13565b612c8e85612d86565b612caa5760405162461bcd60e51b815260040161054890613c7e565b600080866001600160a01b03168587604051612cc691906136c1565b60006040518083038185875af1925050503d8060008114612d03576040519150601f19603f3d011682016040523d82523d6000602084013e612d08565b606091505b5091509150610eed828286612d8c565b6000811580612d3c57508282612d2e818361413f565b9250612d3a908361400b565b145b610d1e5760405162461bcd60e51b815260040161054890613906565b600082612d658382613ff3565b9150811015610d1e5760405162461bcd60e51b8152600401610548906139a2565b3b151590565b60608315612d9b575081610f30565b825115612dab5782518084602001fd5b8160405162461bcd60e51b815260040161054891906137a1565b8035611622816141e8565b60008083601f840112612de1578182fd5b50813567ffffffffffffffff811115612df8578182fd5b6020830191508360208083028501011115612e1257600080fd5b9250929050565b600082601f830112612e29578081fd5b813567ffffffffffffffff811115612e4357612e436141d2565b612e56601f8201601f1916602001613fc9565b818152846020838601011115612e6a578283fd5b816020850160208301379081016020019190915292915050565b80356003811061162257600080fd5b60006101608284031215612ea5578081fd5b50919050565b6000610120808385031215612ebe578182fd5b612ec781613fc9565b915050612ed382612dc5565b8152612ee160208301612dc5565b602082015260408201356040820152606082013560608201526080820135608082015260a082013560a082015260c082013560c0820152612f2460e08301612dc5565b60e082015261010080830135818301525092915050565b600060208284031215612f4c578081fd5b8135610d1b816141e8565b600060208284031215612f68578081fd5b8151610d1b816141e8565b60008060408385031215612f85578081fd5b8235612f90816141e8565b91506020830135612fa0816141e8565b809150509250929050565b60008060008060408587031215612fc0578182fd5b843567ffffffffffffffff80821115612fd7578384fd5b612fe388838901612dd0565b90965094506020870135915080821115612ffb578384fd5b5061300887828801612dd0565b95989497509550505050565b60006020808385031215613026578182fd5b825167ffffffffffffffff8082111561303d578384fd5b818501915085601f830112613050578384fd5b815181811115613062576130626141d2565b8381029150613072848301613fc9565b8181528481019084860184860187018a101561308c578788fd5b8795505b838610156130ae578051835260019590950194918601918601613090565b5098975050505050505050565b6000602082840312156130cc578081fd5b8151610d1b81614200565b6000602082840312156130e8578081fd5b5035919050565b60008060408385031215613101578182fd5b823567ffffffffffffffff811115613117578283fd5b61312385828601612e19565b95602094909401359450505050565b600080600060608486031215613146578081fd5b833567ffffffffffffffff81111561315c578182fd5b61316886828701612e19565b935050602084013591506040840135613180816141e8565b809150509250925092565b60008060008060008060a087890312156131a3578384fd5b86356131ae816141e8565b955060208701356131be816141e8565b94506040870135935060608701359250608087013567ffffffffffffffff808211156131e8578384fd5b818901915089601f8301126131fb578384fd5b813581811115613209578485fd5b8a602082850101111561321a578485fd5b6020830194508093505050509295509295509295565b600080600080600060808688031215613247578283fd5b8535613252816141e8565b945060208601359350604086013567ffffffffffffffff811115613274578384fd5b61328088828901612dd0565b96999598509660600135949350505050565b6000602082840312156132a3578081fd5b610d1b82612e84565b60008061018083850312156132bf578182fd5b6132c98484612e93565b94610160939093013593505050565b6000806000806000808688036102208112156132f2578485fd5b6132fc8989612e93565b965061016088013595506133136101808901612e84565b9450606061019f1982011215613327578283fd5b506040516060810167ffffffffffffffff828210818311171561334c5761334c6141d2565b816040526101a08a013583526101c08a013560208401526101e08a0135915061337482614200565b8160408401528295506102008a0135925080831115613391578485fd5b505061339f89828a01612dd0565b979a9699509497509295939492505050565b60006101608083850312156133c4578182fd5b6133cd81613fc9565b90506133d883612dc5565b81526133e660208401612dc5565b60208201526133f760408401612dc5565b6040820152606083013560608201526080830135608082015260a083013560a082015260c083013560c082015260e083013560e0820152610100808401358183015250610120613448818501612dc5565b90820152610140928301359281019290925250919050565b6000806101408385031215613473578182fd5b61347d8484612eab565b9150610120830135612fa081614200565b600080600080600061018086880312156134a6578283fd5b6134b08787612eab565b94506134bf6101208701612e84565b9350610140860135925061016086013567ffffffffffffffff8111156134e3578182fd5b6134ef88828901612dd0565b969995985093965092949392505050565b600060208284031215613511578081fd5b5051919050565b6000806040838503121561352a578182fd5b505080516020909101519092909150565b60006020828403121561354c578081fd5b815160ff81168114610d1b578182fd5b6001600160a01b03169052565b60008284526020808501945082825b858110156135a657813561358b816141e8565b6001600160a01b031687529582019590820190600101613578565b509495945050505050565b6000815180845260208085019450808401835b838110156135a65781516001600160a01b0316875295820195908201906001016135c4565b60008151808452613601816020860160208601614175565b601f01601f19169290920160200192915050565b6136278261362283612dc5565b61355c565b61363360208201612dc5565b613640602084018261355c565b5061364d60408201612dc5565b61365a604084018261355c565b50606081013560608301526080810135608083015260a081013560a083015260c081013560c083015260e081013560e08301526101008082013581840152506101206136a7818301612dc5565b6136b38285018261355c565b505061014090810135910152565b600082516136d3818460208701614175565b9190910192915050565b90565b6001600160a01b0391909116815260200190565b6001600160a01b0392831681529116602082015260400190565b6001600160a01b039384168152919092166020820152604081019190915260600190565b6001600160a01b03929092168252602082015260400190565b60006060825261375f606083018789613569565b8281036020840152613772818688613569565b91505060018060a01b03831660408301529695505050505050565b901515815260200190565b90815260200190565b600060208252610d1b60208301846135e9565b6000604082526137c760408301856135e9565b90508260208301529392505050565b6001600160a01b03878116825286166020820152604081018590526060810184905260a06080820181905281018290526000828460c084013781830160c090810191909152601f909201601f1916010195945050505050565b600061012060018060a01b03808d1684528b6020850152808b166040850152808a1660608501528860808501528760a085015280871660c0850152508460e084015280610100840152613884818401856135e9565b9c9b505050505050505050505050565b9283526001600160a01b03918216602084015216604082015260600190565b60208082526033908201527f47656c61746f4b72797374616c2e6765744d696e52657475726e3a206964656160408201527206c52657475726e2063616e6e6f74206265203606c1b606082015260800190565b60208082526014908201527364732d6d6174682d6d756c2d6f766572666c6f7760601b604082015260600190565b60208082526018908201527f647374202d20737263203e204d41585f444543494d414c530000000000000000604082015260600190565b6020808252601b908201527f536166654d6174683a206164646974696f6e206f766572666c6f770000000000604082015260600190565b60208082526014908201527364732d6d6174682d6164642d6f766572666c6f7760601b604082015260600190565b60208082526023908201527f53696d706c65536572766963655374616e646172643a20696e76616c6964207460408201526261736b60e81b606082015260800190565b60208082526026908201527f416464726573733a20696e73756666696369656e742062616c616e636520666f6040820152651c8818d85b1b60d21b606082015260800190565b60208082526032908201527f47656c61746f4443412e616374696f6e3a207472616465207061746820646f6560408201527139903737ba1036b0ba31b41037b93232b91760711b606082015260800190565b60208082526010908201526f737263517479203e204d41585f51545960801b604082015260600190565b6020808252600f908201526e17dd1c985b9cd9995c8e8819985a5b608a1b604082015260600190565b60208082526035908201527f47656c61746f4443412e7375626d69743a206d69736d61746368696e6720616d6040820152741bdd5b9d081bd9881155120819195c1bdcda5d1959605a1b606082015260800190565b6020808252602b908201527f53696d706c65536572766963655374616e646172643a2043616c6c657220697360408201526a206e6f742067656c61746f60a81b606082015260800190565b6020808252602c908201527f47656c61746f4443413a2067657450726f746f636f6c416464726573733a204460408201526b195e081b9bdd08199bdd5b9960a21b606082015260800190565b60208082526018908201527f737263202d20647374203e204d41585f444543494d414c530000000000000000604082015260600190565b60208082526039908201527f47656c61746f4443412e7375626d6974416e64457865633a206379636c65206d60408201527f75737420686176652032206f72206d6f72652074726164657300000000000000606082015260800190565b6020808252601d908201527f416464726573733a2063616c6c20746f206e6f6e2d636f6e7472616374000000604082015260600190565b6020808252600f908201526e72617465203e204d41585f5241544560881b604082015260600190565b6020808252602a908201527f5361666545524332303a204552433230206f7065726174696f6e20646964206e6040820152691bdd081cdd58d8d9595960b21b606082015260800190565b602080825260139082015272737263416d6f756e74203e204d41585f51545960681b604082015260600190565b60208082526029908201527f5461736b2053746f726167653a204f6e6c79204f776e65722063616e2072656d6040820152686f7665207461736b7360b81b606082015260800190565b6020808252601f908201527f5265656e7472616e637947756172643a207265656e7472616e742063616c6c00604082015260600190565b60208082526026908201527f47656c61746f4443412e63616e63656c3a20436f756c64206e6f7420726566756040820152650dcc8408aa8960d31b606082015260800190565b60208082526014908201527364657374416d6f756e74203e204d41585f51545960601b604082015260600190565b6101608101610d1e8284613615565b6101808101613e678285613615565b826101608301529392505050565b600061016082019050613e8982845161355c565b6020830151613e9b602084018261355c565b506040830151613eae604084018261355c565b50606083015160608301526080830151608083015260a083015160a083015260c083015160c083015260e083015160e083015261010080840151818401525061012080840151613f008285018261355c565b505061014092830151919092015290565b60008482526040602083015261259a604083018486613569565b600085825260806020830152613f4460808301866135b1565b6001600160a01b03949094166040830152506060015292915050565b918252602082015260400190565b92835260208301919091526001600160a01b0316604082015260600190565b600086825285602083015260a06040830152613fac60a08301866135b1565b6001600160a01b0394909416606083015250608001529392505050565b60405181810167ffffffffffffffff81118282101715613feb57613feb6141d2565b604052919050565b60008219821115614006576140066141bc565b500190565b60008261402657634e487b7160e01b81526012600452602481fd5b500490565b80825b600180861161403d5750614068565b81870482111561404f5761404f6141bc565b8086161561405c57918102915b9490941c93800261402e565b94509492505050565b6000610d1b600019848460008261408a57506001610f30565b8161409757506000610f30565b81600181146140ad57600281146140b7576140e4565b6001915050610f30565b60ff8411156140c8576140c86141bc565b6001841b9150848211156140de576140de6141bc565b50610f30565b5060208310610133831016604e8410600b8410161715614117575081810a83811115614112576141126141bc565b610f30565b614124848484600161402b565b808604821115614136576141366141bc565b02949350505050565b6000816000190483118215151615614159576141596141bc565b500290565b600082821015614170576141706141bc565b500390565b60005b83811015614190578181015183820152602001614178565b838111156117bf5750506000910152565b60006000198214156141b5576141b56141bc565b5060010190565b634e487b7160e01b600052601160045260246000fd5b634e487b7160e01b600052604160045260246000fd5b6001600160a01b03811681146141fd57600080fd5b50565b80151581146141fd57600080fdfe47656c61746f4443413a5f6765744b79626572526174653a206e65774d696e52657475726e20726576657274000000000000000000000000eeeeeeeeeeeeeeeeeeeeeeeeeeeeeeeeeeeeeeee47656c61746f4443413a5f6765744b79626572526174653a206e6577416d6f756e74496e20726576657274a26469706673582212208f0fa83853c59756510b81712f8434e29e59c942a5c8505615d4d9bc858a0ee064736f6c63430008000033",
  "devdoc": {
    "kind": "dev",
    "methods": {},
    "version": 1
  },
  "userdoc": {
    "kind": "user",
    "methods": {},
    "version": 1
  },
  "storageLayout": {
    "storage": [
      {
        "astId": 6497,
        "contract": "contracts/GelatoDCA.sol:GelatoDCA",
        "label": "taskId",
        "offset": 0,
        "slot": "0",
        "type": "t_uint256"
      },
      {
        "astId": 6501,
        "contract": "contracts/GelatoDCA.sol:GelatoDCA",
        "label": "taskOwner",
        "offset": 0,
        "slot": "1",
        "type": "t_mapping(t_bytes32,t_address)"
      },
      {
        "astId": 14023,
        "contract": "contracts/GelatoDCA.sol:GelatoDCA",
        "label": "_status",
        "offset": 0,
        "slot": "2",
        "type": "t_uint256"
      },
      {
        "astId": 12021,
        "contract": "contracts/GelatoDCA.sol:GelatoDCA",
        "label": "decimals",
        "offset": 0,
        "slot": "3",
        "type": "t_mapping(t_contract(IERC20)13549,t_uint256)"
      },
      {
        "astId": 410,
        "contract": "contracts/GelatoDCA.sol:GelatoDCA",
        "label": "platformWalletFees",
        "offset": 0,
        "slot": "4",
        "type": "t_mapping(t_address,t_mapping(t_address,t_uint256))"
      }
    ],
    "types": {
      "t_address": {
        "encoding": "inplace",
        "label": "address",
        "numberOfBytes": "20"
      },
      "t_bytes32": {
        "encoding": "inplace",
        "label": "bytes32",
        "numberOfBytes": "32"
      },
      "t_contract(IERC20)13549": {
        "encoding": "inplace",
        "label": "contract IERC20",
        "numberOfBytes": "20"
      },
      "t_mapping(t_address,t_mapping(t_address,t_uint256))": {
        "encoding": "mapping",
        "key": "t_address",
        "label": "mapping(address => mapping(address => uint256))",
        "numberOfBytes": "32",
        "value": "t_mapping(t_address,t_uint256)"
      },
      "t_mapping(t_address,t_uint256)": {
        "encoding": "mapping",
        "key": "t_address",
        "label": "mapping(address => uint256)",
        "numberOfBytes": "32",
        "value": "t_uint256"
      },
      "t_mapping(t_bytes32,t_address)": {
        "encoding": "mapping",
        "key": "t_bytes32",
        "label": "mapping(bytes32 => address)",
        "numberOfBytes": "32",
        "value": "t_address"
      },
      "t_mapping(t_contract(IERC20)13549,t_uint256)": {
        "encoding": "mapping",
        "key": "t_contract(IERC20)13549",
        "label": "mapping(contract IERC20 => uint256)",
        "numberOfBytes": "32",
        "value": "t_uint256"
      },
      "t_uint256": {
        "encoding": "inplace",
        "label": "uint256",
        "numberOfBytes": "32"
      }
    }
  }
}