{
  "address": "0x8c5504a2733F1cbAa4741CF32316eD7CE3296B20",
  "abi": [
    {
      "inputs": [
        {
          "internalType": "address",
          "name": "_weth",
          "type": "address"
        },
        {
          "internalType": "address[]",
          "name": "_tokensA",
          "type": "address[]"
        },
        {
          "internalType": "address[]",
          "name": "_tokensB",
          "type": "address[]"
        },
        {
          "internalType": "address[]",
          "name": "_oracles",
          "type": "address[]"
        },
        {
          "internalType": "address[]",
          "name": "_stablecoins",
          "type": "address[]"
        },
        {
          "internalType": "uint256[]",
          "name": "_decimals",
          "type": "uint256[]"
        }
      ],
      "stateMutability": "nonpayable",
      "type": "constructor"
    },
    {
      "anonymous": false,
      "inputs": [
        {
          "indexed": true,
          "internalType": "address",
          "name": "previousOwner",
          "type": "address"
        },
        {
          "indexed": true,
          "internalType": "address",
          "name": "newOwner",
          "type": "address"
        }
      ],
      "name": "OwnershipTransferred",
      "type": "event"
    },
    {
      "inputs": [
        {
          "internalType": "address[]",
          "name": "_stablecoins",
          "type": "address[]"
        },
        {
          "internalType": "uint256[]",
          "name": "_decimals",
          "type": "uint256[]"
        }
      ],
      "name": "addStablecoins",
      "outputs": [],
      "stateMutability": "nonpayable",
      "type": "function"
    },
    {
      "inputs": [
        {
          "internalType": "address[]",
          "name": "_tokensA",
          "type": "address[]"
        },
        {
          "internalType": "address[]",
          "name": "_tokensB",
          "type": "address[]"
        },
        {
          "internalType": "address[]",
          "name": "_oracles",
          "type": "address[]"
        }
      ],
      "name": "addTokens",
      "outputs": [],
      "stateMutability": "nonpayable",
      "type": "function"
    },
    {
      "inputs": [
        {
          "internalType": "uint256",
          "name": "amount",
          "type": "uint256"
        },
        {
          "internalType": "address",
          "name": "tokenAddressA",
          "type": "address"
        },
        {
          "internalType": "address",
          "name": "tokenAddressB",
          "type": "address"
        }
      ],
      "name": "getExpectedReturnAmount",
      "outputs": [
        {
          "internalType": "uint256",
          "name": "returnAmount",
          "type": "uint256"
        },
        {
          "internalType": "uint256",
          "name": "decimals",
          "type": "uint256"
        }
      ],
      "stateMutability": "view",
      "type": "function"
    },
    {
      "inputs": [],
      "name": "isOwner",
      "outputs": [
        {
          "internalType": "bool",
          "name": "",
          "type": "bool"
        }
      ],
      "stateMutability": "view",
      "type": "function"
    },
    {
      "inputs": [],
      "name": "owner",
      "outputs": [
        {
          "internalType": "address",
          "name": "",
          "type": "address"
        }
      ],
      "stateMutability": "view",
      "type": "function"
    },
    {
      "inputs": [],
      "name": "renounceOwnership",
      "outputs": [],
      "stateMutability": "nonpayable",
      "type": "function"
    },
    {
      "inputs": [
        {
          "internalType": "address",
          "name": "newOwner",
          "type": "address"
        }
      ],
      "name": "transferOwnership",
      "outputs": [],
      "stateMutability": "nonpayable",
      "type": "function"
    },
    {
      "inputs": [],
      "name": "wethAddress",
      "outputs": [
        {
          "internalType": "address",
          "name": "",
          "type": "address"
        }
      ],
      "stateMutability": "view",
      "type": "function"
    }
  ],
  "transactionHash": "0x732611494f3198f11affb9a91ea945583273c6794b6350ca720a4f23e1f91ab5",
  "args": [
    "0xbCA556c912754Bc8E7D4Aad20Ad69a1B1444F42d",
    [
      "0xEeeeeEeeeEeEeeEeEeEeeEEEeeeeEeeeeeeeEEeE",
      "0xaD6D458402F60fD3Bd25163575031ACDce07538D"
    ],
    [
      "0x7354C81fbCb229187480c4f497F945C6A312d5C3",
      "0xEeeeeEeeeEeEeeEeEeEeeEEEeeeeEeeeeeeeEEeE"
    ],
    [
      "0xCd8936C823c851Df31F64085E257A183029198E0",
      "0xa14D96dcCA45b1003291bE3D2814CBAc44d332D6"
    ],
    [
      "0x7354C81fbCb229187480c4f497F945C6A312d5C3",
      "0xaD6D458402F60fD3Bd25163575031ACDce07538D"
    ],
    [
      8,
      18
    ]
  ],
  "solcInputHash": "b964a3d97e5e08a369f71ecb7f232272",
  "bytecode": "0x60a06040523480156200001157600080fd5b5060405162001dc738038062001dc7833981810160405260c08110156200003757600080fd5b8151602083018051604051929492938301929190846401000000008211156200005f57600080fd5b9083019060208201858111156200007557600080fd5b82518660208202830111640100000000821117156200009357600080fd5b82525081516020918201928201910280838360005b83811015620000c2578181015183820152602001620000a8565b5050505090500160405260200180516040519392919084640100000000821115620000ec57600080fd5b9083019060208201858111156200010257600080fd5b82518660208202830111640100000000821117156200012057600080fd5b82525081516020918201928201910280838360005b838110156200014f57818101518382015260200162000135565b50505050905001604052602001805160405193929190846401000000008211156200017957600080fd5b9083019060208201858111156200018f57600080fd5b8251866020820283011164010000000082111715620001ad57600080fd5b82525081516020918201928201910280838360005b83811015620001dc578181015183820152602001620001c2565b50505050905001604052602001805160405193929190846401000000008211156200020657600080fd5b9083019060208201858111156200021c57600080fd5b82518660208202830111640100000000821117156200023a57600080fd5b82525081516020918201928201910280838360005b83811015620002695781810151838201526020016200024f565b50505050905001604052602001805160405193929190846401000000008211156200029357600080fd5b908301906020820185811115620002a957600080fd5b8251866020820283011164010000000082111715620002c757600080fd5b82525081516020918201928201910280838360005b83811015620002f6578181015183820152602001620002dc565b50505050919091016040819052600080546001600160a01b03191633178082556001600160a01b0316955093507f8be0079c531659141344cd1fd0a4f28419497f9722a3daafe3b4186f6b6457e09250839150a36001600160601b0319606087901b16608052620003728585856001600160e01b036200039316565b6200038782826001600160e01b03620004b916565b50505050505062000592565b620003a66001600160e01b036200058116565b620003e7576040805162461bcd60e51b8152602060048201819052602482015260008051602062001da7833981519152604482015290519081900360640190fd5b81518351148015620003fa575080518351145b6200040457600080fd5b60005b8351811015620004b3578181815181106200041e57fe5b6020026020010151600160008684815181106200043757fe5b60200260200101516001600160a01b03166001600160a01b0316815260200190815260200160002060008584815181106200046e57fe5b6020908102919091018101516001600160a01b0390811683529082019290925260400160002080546001600160a01b0319169290911691909117905560010162000407565b50505050565b620004cc6001600160e01b036200058116565b6200050d576040805162461bcd60e51b8152602060048201819052602482015260008051602062001da7833981519152604482015290519081900360640190fd5b80518251146200051c57600080fd5b60005b82518110156200057c578181815181106200053657fe5b6020026020010151600260008584815181106200054f57fe5b6020908102919091018101516001600160a01b03168252810191909152604001600020556001016200051f565b505050565b6000546001600160a01b0316331490565b60805160601c6117ed620005ba600039806106c652806107125280610da052506117ed6000f3fe608060405234801561001057600080fd5b50600436106100885760003560e01c8063715018a61161005b578063715018a6146103c85780638da5cb5b146103d05780638f32d59b146103d8578063f2fde38b146103f457610088565b80631ef033781461008d5780632711f37f146102345780633c772b6c146103575780634f0e0ef3146103a4575b600080fd5b610232600480360360608110156100a357600080fd5b810190602081018135600160201b8111156100bd57600080fd5b8201836020820111156100cf57600080fd5b803590602001918460208302840111600160201b831117156100f057600080fd5b9190808060200260200160405190810160405280939291908181526020018383602002808284376000920191909152509295949360208101935035915050600160201b81111561013f57600080fd5b82018360208201111561015157600080fd5b803590602001918460208302840111600160201b8311171561017257600080fd5b9190808060200260200160405190810160405280939291908181526020018383602002808284376000920191909152509295949360208101935035915050600160201b8111156101c157600080fd5b8201836020820111156101d357600080fd5b803590602001918460208302840111600160201b831117156101f457600080fd5b91908080602002602001604051908101604052809392919081815260200183836020028082843760009201919091525092955061041a945050505050565b005b6102326004803603604081101561024a57600080fd5b810190602081018135600160201b81111561026457600080fd5b82018360208201111561027657600080fd5b803590602001918460208302840111600160201b8311171561029757600080fd5b9190808060200260200160405190810160405280939291908181526020018383602002808284376000920191909152509295949360208101935035915050600160201b8111156102e657600080fd5b8201836020820111156102f857600080fd5b803590602001918460208302840111600160201b8311171561031957600080fd5b91908080602002602001604051908101604052809392919081815260200183836020028082843760009201919091525092955061052c945050505050565b61038b6004803603606081101561036d57600080fd5b508035906001600160a01b03602082013581169160400135166105e2565b6040805192835260208301919091528051918290030190f35b6103ac610d9e565b604080516001600160a01b039092168252519081900360200190f35b610232610dc2565b6103ac610e53565b6103e0610e62565b604080519115158252519081900360200190f35b6102326004803603602081101561040a57600080fd5b50356001600160a01b0316610e73565b610422610e62565b610461576040805162461bcd60e51b81526020600482018190526024820152600080516020611728833981519152604482015290519081900360640190fd5b81518351148015610473575080518351145b61047c57600080fd5b60005b83518110156105265781818151811061049457fe5b6020026020010151600160008684815181106104ac57fe5b60200260200101516001600160a01b03166001600160a01b0316815260200190815260200160002060008584815181106104e257fe5b6020908102919091018101516001600160a01b0390811683529082019290925260400160002080546001600160a01b0319169290911691909117905560010161047f565b50505050565b610534610e62565b610573576040805162461bcd60e51b81526020600482018190526024820152600080516020611728833981519152604482015290519081900360640190fd5b805182511461058157600080fd5b60005b82518110156105dd5781818151811061059957fe5b6020026020010151600260008584815181106105b157fe5b6020908102919091018101516001600160a01b0316825281019190915260400160002055600101610584565b505050565b6000806000851161063a576040805162461bcd60e51b815260206004820181905260248201527f4f7261636c6541676772656761746f723a20416d6f756e74206973205a65726f604482015290519081900360640190fd5b6001600160a01b03841661067f5760405162461bcd60e51b815260040180806020018281038252602781526020018061169a6027913960400191505060405180910390fd5b6001600160a01b0383166106c45760405162461bcd60e51b81526004018080602001828103825260278152602001806117486027913960400191505060405180910390fd5b7f00000000000000000000000000000000000000000000000000000000000000006001600160a01b0316846001600160a01b031614156107105760008051602061170883398151915293505b7f00000000000000000000000000000000000000000000000000000000000000006001600160a01b0316836001600160a01b0316141561075c5760008051602061170883398151915292505b60006001600160a01b0385166000805160206117088339815191521480159061079c57506001600160a01b03851660008051602061176f83398151915214155b1561084457846001600160a01b031663313ce5676040518163ffffffff1660e01b815260040160206040518083038186803b1580156107da57600080fd5b505afa9250505080156107ff57506040513d60208110156107fa57600080fd5b505160015b61083a5760405162461bcd60e51b815260040180806020018281038252602981526020018061178f6029913960400191505060405180910390fd5b60ff1690506108a5565b6001600160a01b038516600080516020611708833981519152146108a1575060008051602061176f83398151915260005260026020527f9e1b0d3a6188c3223b37ac7da3a60120d30bf27de95f233eff27b6beca24989d546108a5565b5060125b6001600160a01b0384166000908152600260205260408120546108c95760006108cb565b845b90506108d78686610ec6565b90965094506001600160a01b038516600080516020611708833981519152148061091757506001600160a01b03851660008051602061176f833981519152145b15610b0f576001600160a01b038681166000908152600160209081526040808320898516845290915290205416156109b2576000806109568888610f9c565b90925090506001600160a01b03831661097e57610979898363ffffffff6110c816565b61098e565b61098e838a83600086600161112a565b95506109a486600a86900a63ffffffff61120a16565b849550955050505050610d96565b6000806109bf888861124c565b90925090506001600160a01b0382161580156109e257506001600160a01b038116155b156109f8575060009450849350610d9692505050565b6000610a048984610f9c565b509050600080610a148a85610f9c565b90925090506001600160a01b038616610a2d5780610a47565b6001600160a01b0386166000908152600260205260409020545b9050610a7d82610a71610a6486600a86900a63ffffffff6110c816565b8f9063ffffffff6110c816565b9063ffffffff61120a16565b98506001600160a01b038a1660008051602061170883398151915214610ac257610ab189600a89900a63ffffffff61120a16565b879850985050505050505050610d96565b60008051602061176f83398151915260005260026020527f9e1b0d3a6188c3223b37ac7da3a60120d30bf27de95f233eff27b6beca24989d54610ab1908a90600a0a63ffffffff61120a16565b600080610b1c888861124c565b90925090506001600160a01b038216158015610b3f57506001600160a01b038116155b15610b55575060009450849350610d9692505050565b806001600160a01b0316826001600160a01b03161415610bdf57600080610b7c8a85610f9c565b915091506000610b8c8a85610f9c565b509050610baa81610a71610a6486600a87900a63ffffffff6110c816565b98506001600160a01b0385166000805160206117088339815191521415610ac257610ab189600a89900a63ffffffff61120a16565b6001600160a01b038216600080516020611708833981519152148015610c1b57506001600160a01b03811660008051602061176f833981519152145b15610c9b576000610c2c8984610f9c565b5090506000610c5760008051602061170883398151915260008051602061176f833981519152610f9c565b5090506000610c668a85610f9c565b509050610c8081610a71610a64868663ffffffff6110c816565b98505050506109a484600a0a8761120a90919063ffffffff16565b6001600160a01b03821660008051602061176f833981519152148015610cd757506001600160a01b038116600080516020611708833981519152145b15610d91576000806000610ceb8b86610f9c565b91509150600080610d1860008051602061176f833981519152600080516020611708833981519152610f9c565b9092509050610d58600a82900a610a7186610d4c610d3c868963ffffffff6114bb16565b8790600a0a63ffffffff6110c816565b9063ffffffff6110c816565b9450505050506000610d6a8984610f9c565b509050610d8181610a718d8563ffffffff6110c816565b9750949550610d96945050505050565b505050505b935093915050565b7f000000000000000000000000000000000000000000000000000000000000000081565b610dca610e62565b610e09576040805162461bcd60e51b81526020600482018190526024820152600080516020611728833981519152604482015290519081900360640190fd5b600080546040516001600160a01b03909116907f8be0079c531659141344cd1fd0a4f28419497f9722a3daafe3b4186f6b6457e0908390a3600080546001600160a01b0319169055565b6000546001600160a01b031690565b6000546001600160a01b0316331490565b610e7b610e62565b610eba576040805162461bcd60e51b81526020600482018190526024820152600080516020611728833981519152604482015290519081900360640190fd5b610ec3816114fd565b50565b6001600160a01b038216600090815260026020526040812054819015801590610f0657506001600160a01b03831660009081526002602052604090205415155b15610f23575060008051602061176f833981519152905080610f95565b6001600160a01b03841660009081526002602052604090205415610f59575060008051602061176f833981519152905081610f95565b6001600160a01b03831660009081526002602052604090205415610f8f575082905060008051602061176f833981519152610f95565b50829050815b9250929050565b600080826001600160a01b0316846001600160a01b03161415610fc55750600190506000610f95565b6001600160a01b03808516600090815260016020908152604080832087851684528252918290205482516350d25bcd60e01b8152925193169283926350d25bcd926004808301939192829003018186803b15801561102257600080fd5b505afa158015611036573d6000803e3d6000fd5b505050506040513d602081101561104c57600080fd5b50516040805163313ce56760e01b815290519194506001600160a01b0383169163313ce56791600480820192602092909190829003018186803b15801561109257600080fd5b505afa1580156110a6573d6000803e3d6000fd5b505050506040513d60208110156110bc57600080fd5b50519150509250929050565b6000826110d757506000611124565b828202828482816110e457fe5b04146111215760405162461bcd60e51b81526004018080602001828103825260218152602001806116e76021913960400191505060405180910390fd5b90505b92915050565b6001600160a01b0386166000908152600260205260408120548190861061116e576001600160a01b0388166000908152600260205260409020548603600a0a61118e565b6001600160a01b038816600090815260026020526040902054869003600a0a5b6001600160a01b03891660009081526002602052604090205490915086106111df576111da81610a7185816111cd89600a8c900a63ffffffff6110c816565b8c9063ffffffff6110c816565b6111fe565b6111fe81610d4c85610a716111cd89600a8c900a63ffffffff6110c816565b98975050505050505050565b600061112183836040518060400160405280601a81526020017f536166654d6174683a206469766973696f6e206279207a65726f00000000000081525061159d565b6001600160a01b03828116600090815260016020908152604080832060008051602061176f83398151915284529091528120549091829116158015906112c457506001600160a01b03838116600090815260016020908152604080832060008051602061176f83398151915284529091529020541615155b156112e1575060008051602061176f833981519152905080610f95565b6001600160a01b0384811660009081526001602090815260408083206000805160206117088339815191528452909152902054161580159061135557506001600160a01b03838116600090815260016020908152604080832060008051602061170883398151915284529091529020541615155b156113725750600080516020611708833981519152905080610f95565b6001600160a01b038481166000908152600160209081526040808320600080516020611708833981519152845290915290205416158015906113e657506001600160a01b03838116600090815260016020908152604080832060008051602061176f83398151915284529091529020541615155b156114115750600080516020611708833981519152905060008051602061176f833981519152610f95565b6001600160a01b03848116600090815260016020908152604080832060008051602061176f8339815191528452909152902054161580159061148557506001600160a01b03838116600090815260016020908152604080832060008051602061170883398151915284529091529020541615155b156114b0575060008051602061176f8339815191529050600080516020611708833981519152610f95565b506000905080610f95565b600061112183836040518060400160405280601e81526020017f536166654d6174683a207375627472616374696f6e206f766572666c6f77000081525061163f565b6001600160a01b0381166115425760405162461bcd60e51b81526004018080602001828103825260268152602001806116c16026913960400191505060405180910390fd5b600080546040516001600160a01b03808516939216917f8be0079c531659141344cd1fd0a4f28419497f9722a3daafe3b4186f6b6457e091a3600080546001600160a01b0319166001600160a01b0392909216919091179055565b600081836116295760405162461bcd60e51b81526004018080602001828103825283818151815260200191508051906020019080838360005b838110156115ee5781810151838201526020016115d6565b50505050905090810190601f16801561161b5780820380516001836020036101000a031916815260200191505b509250505060405180910390fd5b50600083858161163557fe5b0495945050505050565b600081848411156116915760405162461bcd60e51b81526020600482018181528351602484015283519092839260449091019190850190808383600083156115ee5781810151838201526020016115d6565b50505090039056fe4f7261636c6541676772656761746f723a20746f6b656e4164647265737341206973205a65726f4f776e61626c653a206e6577206f776e657220697320746865207a65726f2061646472657373536166654d6174683a206d756c7469706c69636174696f6e206f766572666c6f77000000000000000000000000eeeeeeeeeeeeeeeeeeeeeeeeeeeeeeeeeeeeeeee4f776e61626c653a2063616c6c6572206973206e6f7420746865206f776e65724f7261636c6541676772656761746f723a20746f6b656e4164647265737342206973205a65726f0000000000000000000000007354c81fbcb229187480c4f497f945c6a312d5c34f7261636c6541676772656761746f723a2045524332302e646563696d616c73282920726576657274a2646970667358221220b5d0c7a90398e75d68120492bbc844db16fe1d94c71498a6d8d249ad6d0aebfc64736f6c634300060a00334f776e61626c653a2063616c6c6572206973206e6f7420746865206f776e6572",
  "devdoc": {
    "methods": {
      "getExpectedReturnAmount(uint256,address,address)": {
        "details": "Get expected return amount for tokenA / tokenB"
      },
      "isOwner()": {
        "details": "Returns true if the caller is the current owner."
      },
      "owner()": {
        "details": "Returns the address of the current owner."
      },
      "renounceOwnership()": {
        "details": "Leaves the contract without owner. It will not be possible to call `onlyOwner` functions anymore. Can only be called by the current owner. NOTE: Renouncing ownership will leave the contract without an owner, thereby removing any functionality that is only available to the owner."
      },
      "transferOwnership(address)": {
        "details": "Transfers ownership of the contract to a new account (`newOwner`). Can only be called by the current owner."
      }
    }
  },
  "userdoc": {
    "methods": {}
  },
  "storageLayout": {
    "storage": [
      {
        "astId": 82,
        "contract": "contracts/gelato/OracleAggregator.sol:OracleAggregator",
        "label": "_owner",
        "offset": 0,
        "slot": "0",
        "type": "t_address"
      },
      {
        "astId": 1713,
        "contract": "contracts/gelato/OracleAggregator.sol:OracleAggregator",
        "label": "_tokenPairAddress",
        "offset": 0,
        "slot": "1",
        "type": "t_mapping(t_address,t_mapping(t_address,t_address))"
      },
      {
        "astId": 1717,
        "contract": "contracts/gelato/OracleAggregator.sol:OracleAggregator",
        "label": "_nrOfDecimalsUSD",
        "offset": 0,
        "slot": "2",
        "type": "t_mapping(t_address,t_uint256)"
      }
    ],
    "types": {
      "t_address": {
        "encoding": "inplace",
        "label": "address",
        "numberOfBytes": "20"
      },
      "t_mapping(t_address,t_address)": {
        "encoding": "mapping",
        "key": "t_address",
        "label": "mapping(address => address)",
        "numberOfBytes": "32",
        "value": "t_address"
      },
      "t_mapping(t_address,t_mapping(t_address,t_address))": {
        "encoding": "mapping",
        "key": "t_address",
        "label": "mapping(address => mapping(address => address))",
        "numberOfBytes": "32",
        "value": "t_mapping(t_address,t_address)"
      },
      "t_mapping(t_address,t_uint256)": {
        "encoding": "mapping",
        "key": "t_address",
        "label": "mapping(address => uint256)",
        "numberOfBytes": "32",
        "value": "t_uint256"
      },
      "t_uint256": {
        "encoding": "inplace",
        "label": "uint256",
        "numberOfBytes": "32"
      }
    }
  }
}