{
  "_format": "hh-sol-artifact-1",
  "contractName": "GelatoKrystal",
  "sourceName": "contracts/gelato/GelatoKrystal.sol",
  "abi": [
    {
      "inputs": [
        {
          "internalType": "contract IGelatoCore",
          "name": "_gelatoCore",
          "type": "address"
        },
        {
          "internalType": "contract IOracleAggregator",
          "name": "_oracleAggregator",
          "type": "address"
        },
        {
          "internalType": "contract ISmartWalletSwapImplementation",
          "name": "_smartWalletSwap",
          "type": "address"
        },
        {
          "internalType": "address",
          "name": "_executor",
          "type": "address"
        },
        {
          "internalType": "address payable",
          "name": "_platformWallet",
          "type": "address"
        }
      ],
      "stateMutability": "payable",
      "type": "constructor"
    },
    {
      "anonymous": false,
      "inputs": [
        {
          "indexed": true,
          "internalType": "address",
          "name": "previousOwner",
          "type": "address"
        },
        {
          "indexed": true,
          "internalType": "address",
          "name": "newOwner",
          "type": "address"
        }
      ],
      "name": "OwnershipTransferred",
      "type": "event"
    },
    {
      "inputs": [],
      "name": "PLATFORM_FEE_BPS",
      "outputs": [
        {
          "internalType": "uint256",
          "name": "",
          "type": "uint256"
        }
      ],
      "stateMutability": "view",
      "type": "function"
    },
    {
      "inputs": [
        {
          "internalType": "address",
          "name": "_user",
          "type": "address"
        },
        {
          "internalType": "contract IERC20",
          "name": "_token",
          "type": "address"
        }
      ],
      "name": "allowanceDelta",
      "outputs": [
        {
          "internalType": "uint256",
          "name": "delta",
          "type": "uint256"
        },
        {
          "internalType": "bool",
          "name": "isLiquid",
          "type": "bool"
        }
      ],
      "stateMutability": "view",
      "type": "function"
    },
    {
      "inputs": [
        {
          "internalType": "uint256",
          "name": "_taskReceiptId",
          "type": "uint256"
        },
        {
          "internalType": "address",
          "name": "_user",
          "type": "address"
        },
        {
          "internalType": "address",
          "name": "_inputToken",
          "type": "address"
        },
        {
          "internalType": "address",
          "name": "_outputToken",
          "type": "address"
        },
        {
          "internalType": "uint256",
          "name": "_amountPerTrade",
          "type": "uint256"
        },
        {
          "internalType": "uint256",
          "name": "_minSlippage",
          "type": "uint256"
        },
        {
          "internalType": "uint256",
          "name": "_maxSlippage",
          "type": "uint256"
        }
      ],
      "name": "checkTimeAndReturn",
      "outputs": [
        {
          "internalType": "string",
          "name": "",
          "type": "string"
        }
      ],
      "stateMutability": "view",
      "type": "function"
    },
    {
      "inputs": [
        {
          "internalType": "address",
          "name": "_inToken",
          "type": "address"
        },
        {
          "internalType": "address",
          "name": "_outToken",
          "type": "address"
        },
        {
          "internalType": "uint256",
          "name": "_amountPerTrade",
          "type": "uint256"
        },
        {
          "internalType": "address payable",
          "name": "_user",
          "type": "address"
        },
        {
          "internalType": "uint256",
          "name": "_delay",
          "type": "uint256"
        }
      ],
      "name": "doSwapKyberAction",
      "outputs": [],
      "stateMutability": "nonpayable",
      "type": "function"
    },
    {
      "inputs": [
        {
          "internalType": "uint256",
          "name": "",
          "type": "uint256"
        },
        {
          "internalType": "address",
          "name": "",
          "type": "address"
        },
        {
          "internalType": "address",
          "name": "",
          "type": "address"
        },
        {
          "components": [
            {
              "components": [
                {
                  "internalType": "address",
                  "name": "inst",
                  "type": "address"
                },
                {
                  "internalType": "bytes",
                  "name": "data",
                  "type": "bytes"
                }
              ],
              "internalType": "struct Condition[]",
              "name": "conditions",
              "type": "tuple[]"
            },
            {
              "components": [
                {
                  "internalType": "address",
                  "name": "addr",
                  "type": "address"
                },
                {
                  "internalType": "bytes",
                  "name": "data",
                  "type": "bytes"
                },
                {
                  "internalType": "enum Operation",
                  "name": "operation",
                  "type": "uint8"
                },
                {
                  "internalType": "enum DataFlow",
                  "name": "dataFlow",
                  "type": "uint8"
                },
                {
                  "internalType": "uint256",
                  "name": "value",
                  "type": "uint256"
                },
                {
                  "internalType": "bool",
                  "name": "termsOkCheck",
                  "type": "bool"
                }
              ],
              "internalType": "struct Action[]",
              "name": "actions",
              "type": "tuple[]"
            },
            {
              "internalType": "uint256",
              "name": "selfProviderGasLimit",
              "type": "uint256"
            },
            {
              "internalType": "uint256",
              "name": "selfProviderGasPriceCeil",
              "type": "uint256"
            }
          ],
          "internalType": "struct Task",
          "name": "_task",
          "type": "tuple"
        },
        {
          "internalType": "uint256",
          "name": "",
          "type": "uint256"
        }
      ],
      "name": "execPayload",
      "outputs": [
        {
          "internalType": "bytes",
          "name": "payload",
          "type": "bytes"
        },
        {
          "internalType": "bool",
          "name": "",
          "type": "bool"
        }
      ],
      "stateMutability": "pure",
      "type": "function"
    },
    {
      "inputs": [],
      "name": "gelatoCore",
      "outputs": [
        {
          "internalType": "contract IGelatoCore",
          "name": "",
          "type": "address"
        }
      ],
      "stateMutability": "view",
      "type": "function"
    },
    {
      "inputs": [
        {
          "internalType": "address",
          "name": "_user",
          "type": "address"
        },
        {
          "internalType": "address",
          "name": "_inputToken",
          "type": "address"
        },
        {
          "internalType": "address",
          "name": "_outputToken",
          "type": "address"
        },
        {
          "internalType": "uint256",
          "name": "_amountPerTrade",
          "type": "uint256"
        },
        {
          "internalType": "uint256",
          "name": "_minSlippage",
          "type": "uint256"
        },
        {
          "internalType": "uint256",
          "name": "_maxSlippage",
          "type": "uint256"
        }
      ],
      "name": "getConditionData",
      "outputs": [
        {
          "internalType": "bytes",
          "name": "",
          "type": "bytes"
        }
      ],
      "stateMutability": "pure",
      "type": "function"
    },
    {
      "inputs": [
        {
          "internalType": "uint256",
          "name": "_taskReceiptId",
          "type": "uint256"
        },
        {
          "internalType": "bytes",
          "name": "_conditionData",
          "type": "bytes"
        },
        {
          "internalType": "uint256",
          "name": "",
          "type": "uint256"
        }
      ],
      "name": "ok",
      "outputs": [
        {
          "internalType": "string",
          "name": "",
          "type": "string"
        }
      ],
      "stateMutability": "view",
      "type": "function"
    },
    {
      "inputs": [],
      "name": "oracleAggregator",
      "outputs": [
        {
          "internalType": "contract IOracleAggregator",
          "name": "",
          "type": "address"
        }
      ],
      "stateMutability": "view",
      "type": "function"
    },
    {
      "inputs": [],
      "name": "owner",
      "outputs": [
        {
          "internalType": "address",
          "name": "",
          "type": "address"
        }
      ],
      "stateMutability": "view",
      "type": "function"
    },
    {
      "inputs": [],
      "name": "platformWallet",
      "outputs": [
        {
          "internalType": "address payable",
          "name": "",
          "type": "address"
        }
      ],
      "stateMutability": "view",
      "type": "function"
    },
    {
      "inputs": [],
      "name": "provideFunds",
      "outputs": [],
      "stateMutability": "payable",
      "type": "function"
    },
    {
      "inputs": [
        {
          "internalType": "address",
          "name": "_executor",
          "type": "address"
        }
      ],
      "name": "reAssignExecutor",
      "outputs": [],
      "stateMutability": "payable",
      "type": "function"
    },
    {
      "inputs": [
        {
          "internalType": "address payable",
          "name": "_platformWallet",
          "type": "address"
        }
      ],
      "name": "reAssignPlatforWallet",
      "outputs": [],
      "stateMutability": "payable",
      "type": "function"
    },
    {
      "inputs": [
        {
          "internalType": "address",
          "name": "",
          "type": "address"
        },
        {
          "internalType": "uint256",
          "name": "",
          "type": "uint256"
        }
      ],
      "name": "refTime",
      "outputs": [
        {
          "internalType": "uint256",
          "name": "",
          "type": "uint256"
        }
      ],
      "stateMutability": "view",
      "type": "function"
    },
    {
      "inputs": [],
      "name": "renounceOwnership",
      "outputs": [],
      "stateMutability": "nonpayable",
      "type": "function"
    },
    {
      "inputs": [],
      "name": "smartWalletSwap",
      "outputs": [
        {
          "internalType": "contract ISmartWalletSwapImplementation",
          "name": "",
          "type": "address"
        }
      ],
      "stateMutability": "view",
      "type": "function"
    },
    {
      "inputs": [
        {
          "components": [
            {
              "internalType": "address",
              "name": "_inToken",
              "type": "address"
            },
            {
              "internalType": "address",
              "name": "_outToken",
              "type": "address"
            },
            {
              "internalType": "uint256",
              "name": "_amountPerTrade",
              "type": "uint256"
            },
            {
              "internalType": "uint256",
              "name": "_nTrades",
              "type": "uint256"
            },
            {
              "internalType": "uint256",
              "name": "_minSlippage",
              "type": "uint256"
            },
            {
              "internalType": "uint256",
              "name": "_maxSlippage",
              "type": "uint256"
            },
            {
              "internalType": "uint256",
              "name": "_delay",
              "type": "uint256"
            },
            {
              "internalType": "uint256",
              "name": "_gasPriceCeil",
              "type": "uint256"
            }
          ],
          "internalType": "struct GelatoKrystal.OrderInputs",
          "name": "_orderInputs",
          "type": "tuple"
        }
      ],
      "name": "submitDCAKyber",
      "outputs": [],
      "stateMutability": "payable",
      "type": "function"
    },
    {
      "inputs": [
        {
          "internalType": "address",
          "name": "",
          "type": "address"
        },
        {
          "internalType": "address",
          "name": "",
          "type": "address"
        }
      ],
      "name": "totalToSpend",
      "outputs": [
        {
          "internalType": "uint256",
          "name": "",
          "type": "uint256"
        }
      ],
      "stateMutability": "view",
      "type": "function"
    },
    {
      "inputs": [
        {
          "internalType": "address",
          "name": "newOwner",
          "type": "address"
        }
      ],
      "name": "transferOwnership",
      "outputs": [],
      "stateMutability": "nonpayable",
      "type": "function"
    },
    {
      "inputs": [
        {
          "internalType": "uint256",
          "name": "_amount",
          "type": "uint256"
        },
        {
          "internalType": "address",
          "name": "_dest",
          "type": "address"
        }
      ],
      "name": "unprovideFunds",
      "outputs": [],
      "stateMutability": "payable",
      "type": "function"
    },
    {
      "stateMutability": "payable",
      "type": "receive"
    }
  ],
  "bytecode": "0x60e0604052604051620029bd380380620029bd83398101604081905262000026916200023c565b6001600160601b0319606086901b1660805260006200004462000238565b600080546001600160a01b0319166001600160a01b0383169081178255604051929350917f8be0079c531659141344cd1fd0a4f28419497f9722a3daafe3b4186f6b6457e0908290a3506001600160601b0319606085811b821660a05284901b1660c052600380546001600160a01b038381166001600160a01b03199092169190911790915560405163088a5e3360e41b8152908616906388a5e33090620000f1908590600401620002bb565b600060405180830381600087803b1580156200010c57600080fd5b505af115801562000121573d6000803e3d6000fd5b50506040805160018082528183019092526060935091506020808301908036833701905050905030816000815181106200015757fe5b6001600160a01b039283166020918202929092010152604051631f0f3b6960e21b815290871690637c3ceda49062000194908490600401620002cf565b600060405180830381600087803b158015620001af57600080fd5b505af1158015620001c4573d6000803e3d6000fd5b50506040516328d0cad760e01b81526001600160a01b03891692506328d0cad791503490620001f8903090600401620002bb565b6000604051808303818588803b1580156200021257600080fd5b505af115801562000227573d6000803e3d6000fd5b505050505050505050505062000337565b3390565b600080600080600060a0868803121562000254578081fd5b855162000261816200031e565b602087015190955062000274816200031e565b604087015190945062000287816200031e565b60608701519093506200029a816200031e565b6080870151909250620002ad816200031e565b809150509295509295909350565b6001600160a01b0391909116815260200190565b6020808252825182820181905260009190848201906040850190845b81811015620003125783516001600160a01b031683529284019291840191600101620002eb565b50909695505050505050565b6001600160a01b03811681146200033457600080fd5b50565b60805160601c60a05160601c60c05160601c6126236200039a600039806104f85280610a035280610b445280610b915250806109355280610ee552508061048b528061056652806106df5280610d62528061112c52806115a352506126236000f3fe60806040526004361061012e5760003560e01c80638787ea36116100ab578063a99891c51161006f578063a99891c5146102d7578063b948104e146102f7578063bd71c39c14610325578063f2fde38b14610345578063fa2af9da14610365578063fe861b991461037a57610135565b80638787ea361461025a5780638c8500bf1461026d5780638da5cb5b1461028d5780638dffe3f4146102a257806390a488ac146102b757610135565b806332786692116100f257806332786692146101c357806347486af0146101d65780634cc342d614610203578063539aa77f14610223578063715018a61461024557610135565b806304a52e291461013a57806306fca7281461014f57806317b333081461018657806326d3562d1461018e5780633238c4f1146101b057610135565b3661013557005b600080fd5b61014d61014836600461192c565b61038f565b005b34801561015b57600080fd5b5061016f61016a366004611b4a565b6103ef565b60405161017d929190611f17565b60405180910390f35b61014d610474565b34801561019a57600080fd5b506101a36104f6565b60405161017d9190611e66565b61014d6101be36600461192c565b61051a565b61014d6101d1366004611a89565b6105b5565b3480156101e257600080fd5b506101f66101f1366004611add565b610757565b60405161017d9190611f04565b34801561020f57600080fd5b5061014d61021e3660046119e4565b610b16565b34801561022f57600080fd5b50610238610c8f565b60405161017d919061231b565b34801561025157600080fd5b5061014d610c94565b61014d610268366004611ab9565b610d13565b34801561027957600080fd5b506101f6610288366004611948565b610e6d565b34801561029957600080fd5b506101a3610ed3565b3480156102ae57600080fd5b506101a3610ee3565b3480156102c357600080fd5b506102386102d2366004611a3e565b610f07565b3480156102e357600080fd5b506101f66102f2366004611baf565b610f24565b34801561030357600080fd5b506103176103123660046119ac565b610f71565b60405161017d929190612382565b34801561033157600080fd5b506102386103403660046119ac565b611048565b34801561035157600080fd5b5061014d61036036600461192c565b611065565b34801561037157600080fd5b506101a361111b565b34801561038657600080fd5b506101a361112a565b61039761114e565b6000546001600160a01b039081169116146103cd5760405162461bcd60e51b81526004016103c490612184565b60405180910390fd5b600380546001600160a01b0319166001600160a01b0392909216919091179055565b606060006104006020850185612392565b600081811061040b57fe5b905060200281019061041d9190612425565b61042b9060208101906123e0565b600082828080601f016020809104026020016040519081016040528093929190818152602001838380828437600092019190915250929d939c50929a5050505050505050505050565b6040516328d0cad760e01b81526001600160a01b037f000000000000000000000000000000000000000000000000000000000000000016906328d0cad79034906104c2903090600401611e66565b6000604051808303818588803b1580156104db57600080fd5b505af11580156104ef573d6000803e3d6000fd5b5050505050565b7f000000000000000000000000000000000000000000000000000000000000000081565b61052261114e565b6000546001600160a01b0390811691161461054f5760405162461bcd60e51b81526004016103c490612184565b60405163088a5e3360e41b81526001600160a01b037f000000000000000000000000000000000000000000000000000000000000000016906388a5e3309061059b908490600401611e66565b600060405180830381600087803b1580156104db57600080fd5b6105c38160c0013533611152565b33600090815260026020908152604082209082906105e39085018561192c565b6001600160a01b03166001600160a01b0316815260200190815260200160002054905061062b826060013561062584604001358461119c90919063ffffffff16565b906111ca565b3360009081526002602090815260408220919061064a9086018661192c565b6001600160a01b0316815260208101919091526040016000205561066c61189f565b5060408051808201909152308082526020808301919091526060906106c5906106979086018661192c565b6106a7604087016020880161192c565b866040013587608001358860a001358960c001358a60e00135611204565b6040516316691c4d60e31b81529091506001600160a01b037f0000000000000000000000000000000000000000000000000000000000000000169063b348e2689061071f908590859060009060608b013590600401612290565b600060405180830381600087803b15801561073957600080fd5b505af115801561074d573d6000803e3d6000fd5b5050505050505050565b60606000866001600160a01b03166370a08231896040518263ffffffff1660e01b81526004016107879190611e66565b60206040518083038186803b15801561079f57600080fd5b505afa1580156107b3573d6000803e3d6000fd5b505050506040513d601f19601f820116820180604052508101906107d79190611aa1565b905084811015610802576040518060600160405280602481526020016125ca60249139915050610b0b565b604051636eb1769f60e11b81526000906001600160a01b0389169063dd62ed3e90610833908c903090600401611e7a565b60206040518083038186803b15801561084b57600080fd5b505afa15801561085f573d6000803e3d6000fd5b505050506040513d601f19601f820116820180604052508101906108839190611aa1565b9050858110156108af576040518060600160405280602681526020016125736026913992505050610b0b565b6001600160a01b03891660009081526001602090815260408083208d84529091529020544281111561091b576040518060400160405280601f81526020017f47656c61746f4b7279737473616c3a2054696d65206e6f7420706173736564008152509350505050610b0b565b604051630f1dcadb60e21b81526000906001600160a01b037f00000000000000000000000000000000000000000000000000000000000000001690633c772b6c9061096e908b908e908e90600401612324565b604080518083038186803b15801561098557600080fd5b505afa158015610999573d6000803e3d6000fd5b505050506040513d601f19601f820116820180604052508101906109bd9190611c2c565b50905060006109cc42846113fb565b88039050808711156109db5750855b60006109fd6109f66127106109f086866111ca565b9061143d565b84906113fb565b905060007f00000000000000000000000000000000000000000000000000000000000000006001600160a01b031663f2459d638e8e8e6008604051806020016040528060008152506040518663ffffffff1660e01b8152600401610a65959493929190611fa7565b604080518083038186803b158015610a7c57600080fd5b505afa158015610a90573d6000803e3d6000fd5b505050506040513d601f19601f82011682018060405250810190610ab49190611c2c565b50905080821115610ae65760405180606001604052806031815260200161259960319139975050505050505050610b0b565b604051806040016040528060028152602001614f4b60f01b8152509750505050505050505b979650505050505050565b610b208183611152565b610b356001600160a01b03861683308661147f565b610b696001600160a01b0386167f0000000000000000000000000000000000000000000000000000000000000000856114d7565b600354604080516020810182526000808252915163cf512b5360e01b81526001600160a01b037f000000000000000000000000000000000000000000000000000000000000000081169463cf512b5394610bd8948c948c948c948c936008939190921691908590600401611f3b565b602060405180830381600087803b158015610bf257600080fd5b505af1158015610c06573d6000803e3d6000fd5b505050506040513d601f19601f82011682018060405250810190610c2a9190611aa1565b506001600160a01b03808316600090815260026020908152604080832093891683529290522054610c5b81856113fb565b6001600160a01b03938416600090815260026020908152604080832099909616825297909752929095209190915550505050565b600881565b610c9c61114e565b6000546001600160a01b03908116911614610cc95760405162461bcd60e51b81526004016103c490612184565b600080546040516001600160a01b03909116907f8be0079c531659141344cd1fd0a4f28419497f9722a3daafe3b4186f6b6457e0908390a3600080546001600160a01b0319169055565b610d1b61114e565b6000546001600160a01b03908116911614610d485760405162461bcd60e51b81526004016103c490612184565b60405163c6638a8b60e01b81526000906001600160a01b037f0000000000000000000000000000000000000000000000000000000000000000169063c6638a8b90610d9790869060040161231b565b602060405180830381600087803b158015610db157600080fd5b505af1158015610dc5573d6000803e3d6000fd5b505050506040513d601f19601f82011682018060405250810190610de99190611aa1565b90506000826001600160a01b031682604051610e0490610ee0565b60006040518083038185875af1925050503d8060008114610e41576040519150601f19603f3d011682016040523d82523d6000602084013e610e46565b606091505b5050905080610e675760405162461bcd60e51b81526004016103c49061210c565b50505050565b60606347486af060e01b6000888888888888604051602401610e959796959493929190612343565b60408051601f198184030181529190526020810180516001600160e01b03166001600160e01b03199093169290921790915290509695505050505050565b6000546001600160a01b03165b90565b7f000000000000000000000000000000000000000000000000000000000000000081565b600160209081526000928352604080842090915290825290205481565b606060008080808080610f3a896024818d61243a565b810190610f479190611948565b955095509550955095509550610f628b878787878787610757565b9b9a5050505050505050505050565b6001600160a01b03808316600090815260026020908152604080832093851680845293909152808220549051636eb1769f60e11b81529192839283919063dd62ed3e90610fc49089903090600401611e7a565b60206040518083038186803b158015610fdc57600080fd5b505afa158015610ff0573d6000803e3d6000fd5b505050506040513d601f19601f820116820180604052508101906110149190611aa1565b9050818110611032576001925061102b81836113fb565b935061103f565b61103c82826113fb565b93505b50509250929050565b600260209081526000928352604080842090915290825290205481565b61106d61114e565b6000546001600160a01b0390811691161461109a5760405162461bcd60e51b81526004016103c490612184565b6001600160a01b0381166110c05760405162461bcd60e51b81526004016103c490612049565b600080546040516001600160a01b03808516939216917f8be0079c531659141344cd1fd0a4f28419497f9722a3daafe3b4186f6b6457e091a3600080546001600160a01b0319166001600160a01b0392909216919091179055565b6003546001600160a01b031681565b7f000000000000000000000000000000000000000000000000000000000000000081565b3390565b42600061115f828561119c565b6001600160a01b038416600090815260016020526040812091925082919061118561159f565b815260208101919091526040016000205550505050565b6000828201838110156111c15760405162461bcd60e51b81526004016103c49061208f565b90505b92915050565b6000826111d9575060006111c4565b828202828482816111e657fe5b04146111c15760405162461bcd60e51b81526004016103c490612143565b606061120e6118b6565b6040518060400160405280306001600160a01b03168152602001611236338c8c8c8c8c610e6d565b905260408051600180825281830190925291925060609190816020015b61125b6118b6565b815260200190600190039081611253579050509050818160008151811061127e57fe5b60200260200101819052506112916118ce565b6040805160c08101825230815290516020820190632661a16b60e11b906112c4908f908f908f9033908e90602401611eb8565b60408051601f19818403018152919052602080820180516001600160e01b03166001600160e01b031990941693909317909252825201600081526020016000815260006020820181905260409091018190529091506060906001905060405190808252806020026020018201604052801561135957816020015b6113466118ce565b81526020019060019003908161133e5790505b509050818160008151811061136a57fe5b602002602001018190525061137d611904565b506040805160808101825284815260208101839052622dc6c08183015260608101889052815160018082528184019093529091816020015b6113bd611904565b8152602001906001900390816113b557905050955080866000815181106113e057fe5b60200260200101819052505050505050979650505050505050565b60006111c183836040518060400160405280601e81526020017f536166654d6174683a207375627472616374696f6e206f766572666c6f770000815250611698565b60006111c183836040518060400160405280601a81526020017f536166654d6174683a206469766973696f6e206279207a65726f0000000000008152506116c9565b610e67846323b872dd60e01b8585856040516024016114a093929190611e94565b60408051601f198184030181529190526020810180516001600160e01b03166001600160e01b031990931692909217909152611700565b80158061155f5750604051636eb1769f60e11b81526001600160a01b0384169063dd62ed3e9061150d9030908690600401611e7a565b60206040518083038186803b15801561152557600080fd5b505afa158015611539573d6000803e3d6000fd5b505050506040513d601f19601f8201168201806040525081019061155d9190611aa1565b155b61157b5760405162461bcd60e51b81526004016103c49061223a565b61159a8363095ea7b360e01b84846040516024016114a0929190611eeb565b505050565b60007f00000000000000000000000000000000000000000000000000000000000000006001600160a01b031663bb07c5036040518163ffffffff1660e01b815260040160206040518083038186803b1580156115fa57600080fd5b505afa92505050801561162a575060408051601f3d908101601f1916820190925261162791810190611aa1565b60015b611690576116366124ab565b806116415750611678565b806040516020016116529190611dfb565b60408051601f198184030181529082905262461bcd60e51b82526103c491600401611f04565b60405162461bcd60e51b81526004016103c490611fe1565b600101905090565b600081848411156116bc5760405162461bcd60e51b81526004016103c49190611f04565b50508183035b9392505050565b600081836116ea5760405162461bcd60e51b81526004016103c49190611f04565b5060008385816116f657fe5b0495945050505050565b6060611755826040518060400160405280602081526020017f5361666545524332303a206c6f772d6c6576656c2063616c6c206661696c6564815250856001600160a01b031661178f9092919063ffffffff16565b80519091501561159a57808060200190518101906117739190611a69565b61159a5760405162461bcd60e51b81526004016103c4906121f0565b606061179e84846000856117a6565b949350505050565b6060824710156117c85760405162461bcd60e51b81526004016103c4906120c6565b6117d18561185c565b6117ed5760405162461bcd60e51b81526004016103c4906121b9565b60006060866001600160a01b0316858760405161180a9190611ddf565b60006040518083038185875af1925050503d8060008114611847576040519150601f19603f3d011682016040523d82523d6000602084013e61184c565b606091505b5091509150610b0b828286611866565b803b15155b919050565b606083156118755750816116c2565b8251156118855782518084602001fd5b8160405162461bcd60e51b81526004016103c49190611f04565b604080518082019091526000808252602082015290565b60408051808201909152600081526060602082015290565b6040805160c081018252600080825260606020830152909182019081526020016000815260006020820181905260409091015290565b6040518060800160405280606081526020016060815260200160008152602001600081525090565b60006020828403121561193d578081fd5b81356111c18161255d565b60008060008060008060c08789031215611960578182fd5b863561196b8161255d565b9550602087013561197b8161255d565b9450604087013561198b8161255d565b959894975094956060810135955060808101359460a0909101359350915050565b600080604083850312156119be578182fd5b82356119c98161255d565b915060208301356119d98161255d565b809150509250929050565b600080600080600060a086880312156119fb578081fd5b8535611a068161255d565b94506020860135611a168161255d565b9350604086013592506060860135611a2d8161255d565b949793965091946080013592915050565b60008060408385031215611a50578182fd5b8235611a5b8161255d565b946020939093013593505050565b600060208284031215611a7a578081fd5b815180151581146111c1578182fd5b60006101008284031215611a9b578081fd5b50919050565b600060208284031215611ab2578081fd5b5051919050565b60008060408385031215611acb578182fd5b8235915060208301356119d98161255d565b600080600080600080600060e0888a031215611af7578485fd5b873596506020880135611b098161255d565b95506040880135611b198161255d565b94506060880135611b298161255d565b9699959850939660808101359560a0820135955060c0909101359350915050565b600080600080600060a08688031215611b61578283fd5b853594506020860135611b738161255d565b93506040860135611b838161255d565b9250606086013567ffffffffffffffff811115611b9e578182fd5b860160808189031215611a2d578182fd5b60008060008060608587031215611bc4578182fd5b84359350602085013567ffffffffffffffff80821115611be2578384fd5b818701915087601f830112611bf5578384fd5b813581811115611c03578485fd5b886020828501011115611c14578485fd5b95986020929092019750949560400135945092505050565b60008060408385031215611c3e578182fd5b505080516020909101519092909150565b6000815180845260208085018081965082840281019150828601855b85811015611ced578284038952815160c0611c868251612462565b8652868201518188880152611c9d82880182611cfa565b915050604080830151611caf81612550565b90870152606082810151611cc29061246e565b908701526080828101519087015260a091820151151591909501529784019790840190600101611c6b565b5091979650505050505050565b60008151808452611d12816020860160208601612479565b601f01601f19169290920160200192915050565b600060018060a01b03825116835260208201516040602085015261179e6040850182611cfa565b8051608080845281519084018190526000916020919082019060a08087019190848202880101855b82811015611da357609f19898303018452611d91828651611d26565b94860194938601939150600101611d75565b5084870151935087810385890152611dbb8185611c4f565b94505050505060408301516040850152606083015160608501528091505092915050565b60008251611df1818460208701612479565b9190910192915050565b60007f47656c61746f537461746566756c436f6e646974696f6e735374616e6461726482527f2e5f67657449644f664e6578745461736b496e4379636c65000000000000000060208301528251611e59816038850160208701612479565b9190910160380192915050565b6001600160a01b0391909116815260200190565b6001600160a01b0392831681529116602082015260400190565b6001600160a01b039384168152919092166020820152604081019190915260600190565b6001600160a01b039586168152938516602085015260408401929092529092166060820152608081019190915260a00190565b6001600160a01b03929092168252602082015260400190565b6000602082526111c16020830184611cfa565b600060408252611f2a6040830185611cfa565b905082151560208301529392505050565b6001600160a01b038a8116825289811660208301526040820189905260608201889052868116608083015260a08201869052841660c082015261012060e08201819052600090611f8d83820186611cfa565b9150508215156101008301529a9950505050505050505050565b6001600160a01b03868116825285166020820152604081018490526060810183905260a060808201819052600090610b0b90830184611cfa565b60208082526042908201527f47656c61746f537461746566756c436f6e646974696f6e735374616e6461726460408201527f2e5f67657449644f664e6578745461736b496e4379636c653a756e646566696e606082015261195960f21b608082015260a00190565b60208082526026908201527f4f776e61626c653a206e6577206f776e657220697320746865207a65726f206160408201526564647265737360d01b606082015260800190565b6020808252601b908201527f536166654d6174683a206164646974696f6e206f766572666c6f770000000000604082015260600190565b60208082526026908201527f416464726573733a20696e73756666696369656e742062616c616e636520666f6040820152651c8818d85b1b60d21b606082015260800190565b60208082526019908201527f756e70726f7669646546756e64733a3a20526576657274656400000000000000604082015260600190565b60208082526021908201527f536166654d6174683a206d756c7469706c69636174696f6e206f766572666c6f6040820152607760f81b606082015260800190565b6020808252818101527f4f776e61626c653a2063616c6c6572206973206e6f7420746865206f776e6572604082015260600190565b6020808252601d908201527f416464726573733a2063616c6c20746f206e6f6e2d636f6e7472616374000000604082015260600190565b6020808252602a908201527f5361666545524332303a204552433230206f7065726174696f6e20646964206e6040820152691bdd081cdd58d8d9595960b21b606082015260800190565b60208082526036908201527f5361666545524332303a20617070726f76652066726f6d206e6f6e2d7a65726f60408201527520746f206e6f6e2d7a65726f20616c6c6f77616e636560501b606082015260800190565b600060a082016122a08751612462565b83526020878101516001600160a01b03168185015260a0604085015286519182905260c0828202850181019290850190888301855b828110156123035760bf198887030184526122f1868351611d4d565b955092840192908401906001016122d5565b50505050506060830194909452506080015292915050565b90815260200190565b9283526001600160a01b03918216602084015216604082015260600190565b9687526001600160a01b0395861660208801529385166040870152919093166060850152608084019290925260a083019190915260c082015260e00190565b9182521515602082015260400190565b6000808335601e198436030181126123a8578283fd5b83018035915067ffffffffffffffff8211156123c2578283fd5b60209081019250810236038213156123d957600080fd5b9250929050565b6000808335601e198436030181126123f6578283fd5b83018035915067ffffffffffffffff821115612410578283fd5b6020019150368190038213156123d957600080fd5b6000823560be19833603018112611df1578182fd5b60008085851115612449578182fd5b83861115612455578182fd5b5050820193919092039150565b6001600160a01b031690565b806004811061186157fe5b60005b8381101561249457818101518382015260200161247c565b83811115610e675750506000910152565b60e01c90565b600060443d10156124bb57610ee0565b600481823e6308c379a06124cf82516124a5565b146124d957610ee0565b6040513d600319016004823e80513d67ffffffffffffffff81602484011181841117156125095750505050610ee0565b828401925082519150808211156125235750505050610ee0565b503d8301602082840101111561253b57505050610ee0565b601f01601f1916810160200160405291505090565b6002811061255a57fe5b50565b6001600160a01b038116811461255a57600080fdfe47656c61746f4b7279737473616c3a20496e73756666696369656e7420616c6c6f77616e636547656c61746f4b7279737473616c3a2054696d65506173736564427574457870656374656452657475726e546f6f4c6f7747656c61746f4b7279737473616c3a20496e73756666696369656e742062616c616e6365a2646970667358221220cd503cf90c39b4850761cc7bed9914d35f818d4da527ab25dea716d3e7f4587d64736f6c63430007000033",
  "linkReferences": {},
  "deployedLinkReferences": {}
}